{"contracts/MockFactory.sol":{"MockFactory":{"abi":[{"inputs":[{"internalType":"address","name":"tokenA","type":"address"},{"internalType":"address","name":"tokenB","type":"address"}],"name":"createPair","outputs":[{"internalType":"address","name":"pair","type":"address"}],"stateMutability":"nonpayable","type":"function"},{"inputs":[{"internalType":"address","name":"","type":"address"},{"internalType":"address","name":"","type":"address"}],"name":"getPair","outputs":[{"internalType":"address","name":"","type":"address"}],"stateMutability":"view","type":"function"}],"evm":{"bytecode":{"linkReferences":{},"object":"60808060405234610016576105c6908161001c8239f35b600080fdfe60806040818152600436101561001457600080fd5b600091823560e01c908163c9c6539614610085575063e6a439051461003857600080fd5b34610081578060031936011261008157602091816100546101ed565b9161005d610208565b6001600160a01b039384168252818652828220908416825285522054915191168152f35b5080fd5b83833461008157806003193601126100815761009f6101ed565b6001600160a01b03939084806100b3610208565b169116918183146101b55750818452602094848652838520828652865280848620541661017b5783516103728082019082821067ffffffffffffffff831117610167578691839161021f8339868152858a82015203019086f0801561015d57908491169485928482528188528282209082528752818120936bffffffffffffffffffffffff60a01b9484868254161790558188528282209082528752209182541617905551908152f35b84513d87823e3d90fd5b634e487b7160e01b88526041600452602488fd5b835162461bcd60e51b81526004810187905260136024820152725061697220616c72656164792065786973747360681b6044820152606490fd5b62461bcd60e51b81526020600482015260136024820152724964656e746963616c2061646472657373657360681b6044820152606490fd5b600435906001600160a01b038216820361020357565b600080fd5b602435906001600160a01b03821682036102035756fe60803461008d57601f61037238819003918201601f19168301916001600160401b0383118484101761009257808492604094855283398101031261008d57610052602061004b836100a8565b92016100a8565b600080546001600160a01b039384166001600160a01b031991821617909155600180549290931691161790556040516102b590816100bd8239f35b600080fd5b634e487b7160e01b600052604160045260246000fd5b51906001600160a01b038216820361008d5756fe60806040818152600436101561001457600080fd5b600091823560e01c9081630dfe1681146101e357508063443cb4bc146101c55780635a76f25e146101a75780639cd441da146100845763d21220a71461005957600080fd5b3461008057816003193601126100805760015490516001600160a01b039091168152602090f35b5080fd5b5034610080578060031936011261008057815481516323b872dd60e01b8082523360048084019190915230602480850191909152903560448401819052949035936020936001600160a01b03918590829060649082908c9087165af1801561019d5790859291610180575b50600154835194855233600486015230602486015260448501879052849160649183918b91165af1908115610177575091610143949161013893610149575b505060025461025c565b60025560035461025c565b60035580f35b8161016892903d10610170575b6101608183610207565b81019061023f565b50388061012e565b503d610156565b513d87823e3d90fd5b61019690833d8511610170576101608183610207565b50386100ef565b83513d8a823e3d90fd5b50346100805781600319360112610080576020906003549051908152f35b50346100805781600319360112610080576020906002549051908152f35b83903461008057816003193601126100805790546001600160a01b03168152602090f35b90601f8019910116810190811067ffffffffffffffff82111761022957604052565b634e487b7160e01b600052604160045260246000fd5b90816020910312610257575180151581036102575790565b600080fd5b9190820180921161026957565b634e487b7160e01b600052601160045260246000fdfea2646970667358221220037a9390c05ac588e734bfd6ca8458a8a866e85844ea6b0cfebc64ad85ae8e4664736f6c63430008140033a264697066735822122071b2555abee08c6d4c5a3ce38ef897b6bdd3ae62a58e1b82d20ff498eacebea164736f6c63430008140033","opcodes":"PUSH1 0x80 DUP1 PUSH1 0x40 MSTORE CALLVALUE PUSH2 0x16 JUMPI PUSH2 0x5C6 SWAP1 DUP2 PUSH2 0x1C DUP3 CODECOPY RETURN JUMPDEST PUSH1 0x0 DUP1 REVERT INVALID PUSH1 0x80 PUSH1 0x40 DUP2 DUP2 MSTORE PUSH1 0x4 CALLDATASIZE LT ISZERO PUSH2 0x14 JUMPI PUSH1 0x0 DUP1 REVERT JUMPDEST PUSH1 0x0 SWAP2 DUP3 CALLDATALOAD PUSH1 0xE0 SHR SWAP1 DUP2 PUSH4 0xC9C65396 EQ PUSH2 0x85 JUMPI POP PUSH4 0xE6A43905 EQ PUSH2 0x38 JUMPI PUSH1 0x0 DUP1 REVERT JUMPDEST CALLVALUE PUSH2 0x81 JUMPI DUP1 PUSH1 0x3 NOT CALLDATASIZE ADD SLT PUSH2 0x81 JUMPI PUSH1 0x20 SWAP2 DUP2 PUSH2 0x54 PUSH2 0x1ED JUMP JUMPDEST SWAP2 PUSH2 0x5D PUSH2 0x208 JUMP JUMPDEST PUSH1 0x1 PUSH1 0x1 PUSH1 0xA0 SHL SUB SWAP4 DUP5 AND DUP3 MSTORE DUP2 DUP7 MSTORE DUP3 DUP3 KECCAK256 SWAP1 DUP5 AND DUP3 MSTORE DUP6 MSTORE KECCAK256 SLOAD SWAP2 MLOAD SWAP2 AND DUP2 MSTORE RETURN JUMPDEST POP DUP1 REVERT JUMPDEST DUP4 DUP4 CALLVALUE PUSH2 0x81 JUMPI DUP1 PUSH1 0x3 NOT CALLDATASIZE ADD SLT PUSH2 0x81 JUMPI PUSH2 0x9F PUSH2 0x1ED JUMP JUMPDEST PUSH1 0x1 PUSH1 0x1 PUSH1 0xA0 SHL SUB SWAP4 SWAP1 DUP5 DUP1 PUSH2 0xB3 PUSH2 0x208 JUMP JUMPDEST AND SWAP2 AND SWAP2 DUP2 DUP4 EQ PUSH2 0x1B5 JUMPI POP DUP2 DUP5 MSTORE PUSH1 0x20 SWAP5 DUP5 DUP7 MSTORE DUP4 DUP6 KECCAK256 DUP3 DUP7 MSTORE DUP7 MSTORE DUP1 DUP5 DUP7 KECCAK256 SLOAD AND PUSH2 0x17B JUMPI DUP4 MLOAD PUSH2 0x372 DUP1 DUP3 ADD SWAP1 DUP3 DUP3 LT PUSH8 0xFFFFFFFFFFFFFFFF DUP4 GT OR PUSH2 0x167 JUMPI DUP7 SWAP2 DUP4 SWAP2 PUSH2 0x21F DUP4 CODECOPY DUP7 DUP2 MSTORE DUP6 DUP11 DUP3 ADD MSTORE SUB ADD SWAP1 DUP7 CREATE DUP1 ISZERO PUSH2 0x15D JUMPI SWAP1 DUP5 SWAP2 AND SWAP5 DUP6 SWAP3 DUP5 DUP3 MSTORE DUP2 DUP9 MSTORE DUP3 DUP3 KECCAK256 SWAP1 DUP3 MSTORE DUP8 MSTORE DUP2 DUP2 KECCAK256 SWAP4 PUSH12 0xFFFFFFFFFFFFFFFFFFFFFFFF PUSH1 0xA0 SHL SWAP5 DUP5 DUP7 DUP3 SLOAD AND OR SWAP1 SSTORE DUP2 DUP9 MSTORE DUP3 DUP3 KECCAK256 SWAP1 DUP3 MSTORE DUP8 MSTORE KECCAK256 SWAP2 DUP3 SLOAD AND OR SWAP1 SSTORE MLOAD SWAP1 DUP2 MSTORE RETURN JUMPDEST DUP5 MLOAD RETURNDATASIZE DUP8 DUP3 RETURNDATACOPY RETURNDATASIZE SWAP1 REVERT JUMPDEST PUSH4 0x4E487B71 PUSH1 0xE0 SHL DUP9 MSTORE PUSH1 0x41 PUSH1 0x4 MSTORE PUSH1 0x24 DUP9 REVERT JUMPDEST DUP4 MLOAD PUSH3 0x461BCD PUSH1 0xE5 SHL DUP2 MSTORE PUSH1 0x4 DUP2 ADD DUP8 SWAP1 MSTORE PUSH1 0x13 PUSH1 0x24 DUP3 ADD MSTORE PUSH19 0x5061697220616C726561647920657869737473 PUSH1 0x68 SHL PUSH1 0x44 DUP3 ADD MSTORE PUSH1 0x64 SWAP1 REVERT JUMPDEST PUSH3 0x461BCD PUSH1 0xE5 SHL DUP2 MSTORE PUSH1 0x20 PUSH1 0x4 DUP3 ADD MSTORE PUSH1 0x13 PUSH1 0x24 DUP3 ADD MSTORE PUSH19 0x4964656E746963616C20616464726573736573 PUSH1 0x68 SHL PUSH1 0x44 DUP3 ADD MSTORE PUSH1 0x64 SWAP1 REVERT JUMPDEST PUSH1 0x4 CALLDATALOAD SWAP1 PUSH1 0x1 PUSH1 0x1 PUSH1 0xA0 SHL SUB DUP3 AND DUP3 SUB PUSH2 0x203 JUMPI JUMP JUMPDEST PUSH1 0x0 DUP1 REVERT JUMPDEST PUSH1 0x24 CALLDATALOAD SWAP1 PUSH1 0x1 PUSH1 0x1 PUSH1 0xA0 SHL SUB DUP3 AND DUP3 SUB PUSH2 0x203 JUMPI JUMP INVALID PUSH1 0x80 CALLVALUE PUSH2 0x8D JUMPI PUSH1 0x1F PUSH2 0x372 CODESIZE DUP2 SWAP1 SUB SWAP2 DUP3 ADD PUSH1 0x1F NOT AND DUP4 ADD SWAP2 PUSH1 0x1 PUSH1 0x1 PUSH1 0x40 SHL SUB DUP4 GT DUP5 DUP5 LT OR PUSH2 0x92 JUMPI DUP1 DUP5 SWAP3 PUSH1 0x40 SWAP5 DUP6 MSTORE DUP4 CODECOPY DUP2 ADD SUB SLT PUSH2 0x8D JUMPI PUSH2 0x52 PUSH1 0x20 PUSH2 0x4B DUP4 PUSH2 0xA8 JUMP JUMPDEST SWAP3 ADD PUSH2 0xA8 JUMP JUMPDEST PUSH1 0x0 DUP1 SLOAD PUSH1 0x1 PUSH1 0x1 PUSH1 0xA0 SHL SUB SWAP4 DUP5 AND PUSH1 0x1 PUSH1 0x1 PUSH1 0xA0 SHL SUB NOT SWAP2 DUP3 AND OR SWAP1 SWAP2 SSTORE PUSH1 0x1 DUP1 SLOAD SWAP3 SWAP1 SWAP4 AND SWAP2 AND OR SWAP1 SSTORE PUSH1 0x40 MLOAD PUSH2 0x2B5 SWAP1 DUP2 PUSH2 0xBD DUP3 CODECOPY RETURN JUMPDEST PUSH1 0x0 DUP1 REVERT JUMPDEST PUSH4 0x4E487B71 PUSH1 0xE0 SHL PUSH1 0x0 MSTORE PUSH1 0x41 PUSH1 0x4 MSTORE PUSH1 0x24 PUSH1 0x0 REVERT JUMPDEST MLOAD SWAP1 PUSH1 0x1 PUSH1 0x1 PUSH1 0xA0 SHL SUB DUP3 AND DUP3 SUB PUSH2 0x8D JUMPI JUMP INVALID PUSH1 0x80 PUSH1 0x40 DUP2 DUP2 MSTORE PUSH1 0x4 CALLDATASIZE LT ISZERO PUSH2 0x14 JUMPI PUSH1 0x0 DUP1 REVERT JUMPDEST PUSH1 0x0 SWAP2 DUP3 CALLDATALOAD PUSH1 0xE0 SHR SWAP1 DUP2 PUSH4 0xDFE1681 EQ PUSH2 0x1E3 JUMPI POP DUP1 PUSH4 0x443CB4BC EQ PUSH2 0x1C5 JUMPI DUP1 PUSH4 0x5A76F25E EQ PUSH2 0x1A7 JUMPI DUP1 PUSH4 0x9CD441DA EQ PUSH2 0x84 JUMPI PUSH4 0xD21220A7 EQ PUSH2 0x59 JUMPI PUSH1 0x0 DUP1 REVERT JUMPDEST CALLVALUE PUSH2 0x80 JUMPI DUP2 PUSH1 0x3 NOT CALLDATASIZE ADD SLT PUSH2 0x80 JUMPI PUSH1 0x1 SLOAD SWAP1 MLOAD PUSH1 0x1 PUSH1 0x1 PUSH1 0xA0 SHL SUB SWAP1 SWAP2 AND DUP2 MSTORE PUSH1 0x20 SWAP1 RETURN JUMPDEST POP DUP1 REVERT JUMPDEST POP CALLVALUE PUSH2 0x80 JUMPI DUP1 PUSH1 0x3 NOT CALLDATASIZE ADD SLT PUSH2 0x80 JUMPI DUP2 SLOAD DUP2 MLOAD PUSH4 0x23B872DD PUSH1 0xE0 SHL DUP1 DUP3 MSTORE CALLER PUSH1 0x4 DUP1 DUP5 ADD SWAP2 SWAP1 SWAP2 MSTORE ADDRESS PUSH1 0x24 DUP1 DUP6 ADD SWAP2 SWAP1 SWAP2 MSTORE SWAP1 CALLDATALOAD PUSH1 0x44 DUP5 ADD DUP2 SWAP1 MSTORE SWAP5 SWAP1 CALLDATALOAD SWAP4 PUSH1 0x20 SWAP4 PUSH1 0x1 PUSH1 0x1 PUSH1 0xA0 SHL SUB SWAP2 DUP6 SWAP1 DUP3 SWAP1 PUSH1 0x64 SWAP1 DUP3 SWAP1 DUP13 SWAP1 DUP8 AND GAS CALL DUP1 ISZERO PUSH2 0x19D JUMPI SWAP1 DUP6 SWAP3 SWAP2 PUSH2 0x180 JUMPI JUMPDEST POP PUSH1 0x1 SLOAD DUP4 MLOAD SWAP5 DUP6 MSTORE CALLER PUSH1 0x4 DUP7 ADD MSTORE ADDRESS PUSH1 0x24 DUP7 ADD MSTORE PUSH1 0x44 DUP6 ADD DUP8 SWAP1 MSTORE DUP5 SWAP2 PUSH1 0x64 SWAP2 DUP4 SWAP2 DUP12 SWAP2 AND GAS CALL SWAP1 DUP2 ISZERO PUSH2 0x177 JUMPI POP SWAP2 PUSH2 0x143 SWAP5 SWAP2 PUSH2 0x138 SWAP4 PUSH2 0x149 JUMPI JUMPDEST POP POP PUSH1 0x2 SLOAD PUSH2 0x25C JUMP JUMPDEST PUSH1 0x2 SSTORE PUSH1 0x3 SLOAD PUSH2 0x25C JUMP JUMPDEST PUSH1 0x3 SSTORE DUP1 RETURN JUMPDEST DUP2 PUSH2 0x168 SWAP3 SWAP1 RETURNDATASIZE LT PUSH2 0x170 JUMPI JUMPDEST PUSH2 0x160 DUP2 DUP4 PUSH2 0x207 JUMP JUMPDEST DUP2 ADD SWAP1 PUSH2 0x23F JUMP JUMPDEST POP CODESIZE DUP1 PUSH2 0x12E JUMP JUMPDEST POP RETURNDATASIZE PUSH2 0x156 JUMP JUMPDEST MLOAD RETURNDATASIZE DUP8 DUP3 RETURNDATACOPY RETURNDATASIZE SWAP1 REVERT JUMPDEST PUSH2 0x196 SWAP1 DUP4 RETURNDATASIZE DUP6 GT PUSH2 0x170 JUMPI PUSH2 0x160 DUP2 DUP4 PUSH2 0x207 JUMP JUMPDEST POP CODESIZE PUSH2 0xEF JUMP JUMPDEST DUP4 MLOAD RETURNDATASIZE DUP11 DUP3 RETURNDATACOPY RETURNDATASIZE SWAP1 REVERT JUMPDEST POP CALLVALUE PUSH2 0x80 JUMPI DUP2 PUSH1 0x3 NOT CALLDATASIZE ADD SLT PUSH2 0x80 JUMPI PUSH1 0x20 SWAP1 PUSH1 0x3 SLOAD SWAP1 MLOAD SWAP1 DUP2 MSTORE RETURN JUMPDEST POP CALLVALUE PUSH2 0x80 JUMPI DUP2 PUSH1 0x3 NOT CALLDATASIZE ADD SLT PUSH2 0x80 JUMPI PUSH1 0x20 SWAP1 PUSH1 0x2 SLOAD SWAP1 MLOAD SWAP1 DUP2 MSTORE RETURN JUMPDEST DUP4 SWAP1 CALLVALUE PUSH2 0x80 JUMPI DUP2 PUSH1 0x3 NOT CALLDATASIZE ADD SLT PUSH2 0x80 JUMPI SWAP1 SLOAD PUSH1 0x1 PUSH1 0x1 PUSH1 0xA0 SHL SUB AND DUP2 MSTORE PUSH1 0x20 SWAP1 RETURN JUMPDEST SWAP1 PUSH1 0x1F DUP1 NOT SWAP2 ADD AND DUP2 ADD SWAP1 DUP2 LT PUSH8 0xFFFFFFFFFFFFFFFF DUP3 GT OR PUSH2 0x229 JUMPI PUSH1 0x40 MSTORE JUMP JUMPDEST PUSH4 0x4E487B71 PUSH1 0xE0 SHL PUSH1 0x0 MSTORE PUSH1 0x41 PUSH1 0x4 MSTORE PUSH1 0x24 PUSH1 0x0 REVERT JUMPDEST SWAP1 DUP2 PUSH1 0x20 SWAP2 SUB SLT PUSH2 0x257 JUMPI MLOAD DUP1 ISZERO ISZERO DUP2 SUB PUSH2 0x257 JUMPI SWAP1 JUMP JUMPDEST PUSH1 0x0 DUP1 REVERT JUMPDEST SWAP2 SWAP1 DUP3 ADD DUP1 SWAP3 GT PUSH2 0x269 JUMPI JUMP JUMPDEST PUSH4 0x4E487B71 PUSH1 0xE0 SHL PUSH1 0x0 MSTORE PUSH1 0x11 PUSH1 0x4 MSTORE PUSH1 0x24 PUSH1 0x0 REVERT INVALID LOG2 PUSH5 0x6970667358 0x22 SLT KECCAK256 SUB PUSH27 0x9390C05AC588E734BFD6CA8458A8A866E85844EA6B0CFEBC64AD85 0xAE DUP15 CHAINID PUSH5 0x736F6C6343 STOP ADDMOD EQ STOP CALLER LOG2 PUSH5 0x6970667358 0x22 SLT KECCAK256 PUSH18 0xB2555ABEE08C6D4C5A3CE38EF897B6BDD3AE PUSH3 0xA58E1B DUP3 0xD2 0xF DELEGATECALL SWAP9 0xEA 0xCE 0xBE LOG1 PUSH5 0x736F6C6343 STOP ADDMOD EQ STOP CALLER "},"methodIdentifiers":{"createPair(address,address)":"c9c65396","getPair(address,address)":"e6a43905"}}}}}