{"contracts/MockUniswapRouter.sol":{"MockRouter":{"abi":[{"inputs":[{"internalType":"address","name":"_factory","type":"address"}],"stateMutability":"nonpayable","type":"constructor"},{"inputs":[{"internalType":"address","name":"tokenA","type":"address"},{"internalType":"address","name":"tokenB","type":"address"},{"internalType":"uint256","name":"amountADesired","type":"uint256"},{"internalType":"uint256","name":"amountBDesired","type":"uint256"}],"name":"addLiquidity","outputs":[],"stateMutability":"nonpayable","type":"function"},{"inputs":[],"name":"factory","outputs":[{"internalType":"address","name":"","type":"address"}],"stateMutability":"view","type":"function"}],"evm":{"bytecode":{"linkReferences":{},"object":"60803461007457601f6103e638819003918201601f19168301916001600160401b038311848410176100795780849260209460405283398101031261007457516001600160a01b0381169081900361007457600080546001600160a01b03191691909117905560405161035690816100908239f35b600080fd5b634e487b7160e01b600052604160045260246000fdfe608060408181526004908136101561001657600080fd5b600092833560e01c908163c45a0155146102a3575063cf6c62ea1461003a57600080fd5b346101bb5760803660031901126101bb5781356001600160a01b03818116939184900361029f576024359080821680920361029b57604435906064359281885416918651809363e6a4390560e01b8252898883015283602483015281604460209687935afa908115610291578a91610257575b501696871561021e5786516323b872dd60e01b808252338289019081526001600160a01b038b166020820152604081018790528b9796959493919291859183919082908b90829060600103925af180156102145792888886948d948a976101f7575b508c51908152339281019283526001600160a01b039094166020830152604082019590955291938492839190829060600103925af180156101ed576101bf575b5050853b156101bb576044908386519788948593634e6a20ed60e11b85528885015260248401525af180156101b157610186578380f35b67ffffffffffffffff831161019e5750523880808380f35b634e487b7160e01b845260419052602483fd5b82513d86823e3d90fd5b8280fd5b816101de92903d106101e6575b6101d681836102cb565b810190610303565b50388061014f565b503d6101cc565b87513d87823e3d90fd5b61020d90873d89116101e6576101d681836102cb565b503861010f565b89513d89823e3d90fd5b865162461bcd60e51b8152808701849052601360248201527214185a5c88191bd95cc81b9bdd08195e1a5cdd606a1b6044820152606490fd5b90508381813d831161028a575b61026e81836102cb565b810103126102865751818116810361028657386100ad565b8980fd5b503d610264565b88513d8c823e3d90fd5b8580fd5b8480fd5b8490346102c757816003193601126102c75790546001600160a01b03168152602090f35b5080fd5b90601f8019910116810190811067ffffffffffffffff8211176102ed57604052565b634e487b7160e01b600052604160045260246000fd5b9081602091031261031b5751801515810361031b5790565b600080fdfea2646970667358221220ddb48c1a96df3adf9d1eb4b9fb0a7569f7ce4999a9cf98fd7f8d6134e646ea2664736f6c63430008140033","opcodes":"PUSH1 0x80 CALLVALUE PUSH2 0x74 JUMPI PUSH1 0x1F PUSH2 0x3E6 CODESIZE DUP2 SWAP1 SUB SWAP2 DUP3 ADD PUSH1 0x1F NOT AND DUP4 ADD SWAP2 PUSH1 0x1 PUSH1 0x1 PUSH1 0x40 SHL SUB DUP4 GT DUP5 DUP5 LT OR PUSH2 0x79 JUMPI DUP1 DUP5 SWAP3 PUSH1 0x20 SWAP5 PUSH1 0x40 MSTORE DUP4 CODECOPY DUP2 ADD SUB SLT PUSH2 0x74 JUMPI MLOAD PUSH1 0x1 PUSH1 0x1 PUSH1 0xA0 SHL SUB DUP2 AND SWAP1 DUP2 SWAP1 SUB PUSH2 0x74 JUMPI PUSH1 0x0 DUP1 SLOAD PUSH1 0x1 PUSH1 0x1 PUSH1 0xA0 SHL SUB NOT AND SWAP2 SWAP1 SWAP2 OR SWAP1 SSTORE PUSH1 0x40 MLOAD PUSH2 0x356 SWAP1 DUP2 PUSH2 0x90 DUP3 CODECOPY RETURN JUMPDEST PUSH1 0x0 DUP1 REVERT JUMPDEST PUSH4 0x4E487B71 PUSH1 0xE0 SHL PUSH1 0x0 MSTORE PUSH1 0x41 PUSH1 0x4 MSTORE PUSH1 0x24 PUSH1 0x0 REVERT INVALID PUSH1 0x80 PUSH1 0x40 DUP2 DUP2 MSTORE PUSH1 0x4 SWAP1 DUP2 CALLDATASIZE LT ISZERO PUSH2 0x16 JUMPI PUSH1 0x0 DUP1 REVERT JUMPDEST PUSH1 0x0 SWAP3 DUP4 CALLDATALOAD PUSH1 0xE0 SHR SWAP1 DUP2 PUSH4 0xC45A0155 EQ PUSH2 0x2A3 JUMPI POP PUSH4 0xCF6C62EA EQ PUSH2 0x3A JUMPI PUSH1 0x0 DUP1 REVERT JUMPDEST CALLVALUE PUSH2 0x1BB JUMPI PUSH1 0x80 CALLDATASIZE PUSH1 0x3 NOT ADD SLT PUSH2 0x1BB JUMPI DUP2 CALLDATALOAD PUSH1 0x1 PUSH1 0x1 PUSH1 0xA0 SHL SUB DUP2 DUP2 AND SWAP4 SWAP2 DUP5 SWAP1 SUB PUSH2 0x29F JUMPI PUSH1 0x24 CALLDATALOAD SWAP1 DUP1 DUP3 AND DUP1 SWAP3 SUB PUSH2 0x29B JUMPI PUSH1 0x44 CALLDATALOAD SWAP1 PUSH1 0x64 CALLDATALOAD SWAP3 DUP2 DUP9 SLOAD AND SWAP2 DUP7 MLOAD DUP1 SWAP4 PUSH4 0xE6A43905 PUSH1 0xE0 SHL DUP3 MSTORE DUP10 DUP9 DUP4 ADD MSTORE DUP4 PUSH1 0x24 DUP4 ADD MSTORE DUP2 PUSH1 0x44 PUSH1 0x20 SWAP7 DUP8 SWAP4 GAS STATICCALL SWAP1 DUP2 ISZERO PUSH2 0x291 JUMPI DUP11 SWAP2 PUSH2 0x257 JUMPI JUMPDEST POP AND SWAP7 DUP8 ISZERO PUSH2 0x21E JUMPI DUP7 MLOAD PUSH4 0x23B872DD PUSH1 0xE0 SHL DUP1 DUP3 MSTORE CALLER DUP3 DUP10 ADD SWAP1 DUP2 MSTORE PUSH1 0x1 PUSH1 0x1 PUSH1 0xA0 SHL SUB DUP12 AND PUSH1 0x20 DUP3 ADD MSTORE PUSH1 0x40 DUP2 ADD DUP8 SWAP1 MSTORE DUP12 SWAP8 SWAP7 SWAP6 SWAP5 SWAP4 SWAP2 SWAP3 SWAP2 DUP6 SWAP2 DUP4 SWAP2 SWAP1 DUP3 SWAP1 DUP12 SWAP1 DUP3 SWAP1 PUSH1 0x60 ADD SUB SWAP3 GAS CALL DUP1 ISZERO PUSH2 0x214 JUMPI SWAP3 DUP9 DUP9 DUP7 SWAP5 DUP14 SWAP5 DUP11 SWAP8 PUSH2 0x1F7 JUMPI JUMPDEST POP DUP13 MLOAD SWAP1 DUP2 MSTORE CALLER SWAP3 DUP2 ADD SWAP3 DUP4 MSTORE PUSH1 0x1 PUSH1 0x1 PUSH1 0xA0 SHL SUB SWAP1 SWAP5 AND PUSH1 0x20 DUP4 ADD MSTORE PUSH1 0x40 DUP3 ADD SWAP6 SWAP1 SWAP6 MSTORE SWAP2 SWAP4 DUP5 SWAP3 DUP4 SWAP2 SWAP1 DUP3 SWAP1 PUSH1 0x60 ADD SUB SWAP3 GAS CALL DUP1 ISZERO PUSH2 0x1ED JUMPI PUSH2 0x1BF JUMPI JUMPDEST POP POP DUP6 EXTCODESIZE ISZERO PUSH2 0x1BB JUMPI PUSH1 0x44 SWAP1 DUP4 DUP7 MLOAD SWAP8 DUP9 SWAP5 DUP6 SWAP4 PUSH4 0x4E6A20ED PUSH1 0xE1 SHL DUP6 MSTORE DUP9 DUP6 ADD MSTORE PUSH1 0x24 DUP5 ADD MSTORE GAS CALL DUP1 ISZERO PUSH2 0x1B1 JUMPI PUSH2 0x186 JUMPI DUP4 DUP1 RETURN JUMPDEST PUSH8 0xFFFFFFFFFFFFFFFF DUP4 GT PUSH2 0x19E JUMPI POP MSTORE CODESIZE DUP1 DUP1 DUP4 DUP1 RETURN JUMPDEST PUSH4 0x4E487B71 PUSH1 0xE0 SHL DUP5 MSTORE PUSH1 0x41 SWAP1 MSTORE PUSH1 0x24 DUP4 REVERT JUMPDEST DUP3 MLOAD RETURNDATASIZE DUP7 DUP3 RETURNDATACOPY RETURNDATASIZE SWAP1 REVERT JUMPDEST DUP3 DUP1 REVERT JUMPDEST DUP2 PUSH2 0x1DE SWAP3 SWAP1 RETURNDATASIZE LT PUSH2 0x1E6 JUMPI JUMPDEST PUSH2 0x1D6 DUP2 DUP4 PUSH2 0x2CB JUMP JUMPDEST DUP2 ADD SWAP1 PUSH2 0x303 JUMP JUMPDEST POP CODESIZE DUP1 PUSH2 0x14F JUMP JUMPDEST POP RETURNDATASIZE PUSH2 0x1CC JUMP JUMPDEST DUP8 MLOAD RETURNDATASIZE DUP8 DUP3 RETURNDATACOPY RETURNDATASIZE SWAP1 REVERT JUMPDEST PUSH2 0x20D SWAP1 DUP8 RETURNDATASIZE DUP10 GT PUSH2 0x1E6 JUMPI PUSH2 0x1D6 DUP2 DUP4 PUSH2 0x2CB JUMP JUMPDEST POP CODESIZE PUSH2 0x10F JUMP JUMPDEST DUP10 MLOAD RETURNDATASIZE DUP10 DUP3 RETURNDATACOPY RETURNDATASIZE SWAP1 REVERT JUMPDEST DUP7 MLOAD PUSH3 0x461BCD PUSH1 0xE5 SHL DUP2 MSTORE DUP1 DUP8 ADD DUP5 SWAP1 MSTORE PUSH1 0x13 PUSH1 0x24 DUP3 ADD MSTORE PUSH19 0x14185A5C88191BD95CC81B9BDD08195E1A5CDD PUSH1 0x6A SHL PUSH1 0x44 DUP3 ADD MSTORE PUSH1 0x64 SWAP1 REVERT JUMPDEST SWAP1 POP DUP4 DUP2 DUP2 RETURNDATASIZE DUP4 GT PUSH2 0x28A JUMPI JUMPDEST PUSH2 0x26E DUP2 DUP4 PUSH2 0x2CB JUMP JUMPDEST DUP2 ADD SUB SLT PUSH2 0x286 JUMPI MLOAD DUP2 DUP2 AND DUP2 SUB PUSH2 0x286 JUMPI CODESIZE PUSH2 0xAD JUMP JUMPDEST DUP10 DUP1 REVERT JUMPDEST POP RETURNDATASIZE PUSH2 0x264 JUMP JUMPDEST DUP9 MLOAD RETURNDATASIZE DUP13 DUP3 RETURNDATACOPY RETURNDATASIZE SWAP1 REVERT JUMPDEST DUP6 DUP1 REVERT JUMPDEST DUP5 DUP1 REVERT JUMPDEST DUP5 SWAP1 CALLVALUE PUSH2 0x2C7 JUMPI DUP2 PUSH1 0x3 NOT CALLDATASIZE ADD SLT PUSH2 0x2C7 JUMPI SWAP1 SLOAD PUSH1 0x1 PUSH1 0x1 PUSH1 0xA0 SHL SUB AND DUP2 MSTORE PUSH1 0x20 SWAP1 RETURN JUMPDEST POP DUP1 REVERT JUMPDEST SWAP1 PUSH1 0x1F DUP1 NOT SWAP2 ADD AND DUP2 ADD SWAP1 DUP2 LT PUSH8 0xFFFFFFFFFFFFFFFF DUP3 GT OR PUSH2 0x2ED JUMPI PUSH1 0x40 MSTORE JUMP JUMPDEST PUSH4 0x4E487B71 PUSH1 0xE0 SHL PUSH1 0x0 MSTORE PUSH1 0x41 PUSH1 0x4 MSTORE PUSH1 0x24 PUSH1 0x0 REVERT JUMPDEST SWAP1 DUP2 PUSH1 0x20 SWAP2 SUB SLT PUSH2 0x31B JUMPI MLOAD DUP1 ISZERO ISZERO DUP2 SUB PUSH2 0x31B JUMPI SWAP1 JUMP JUMPDEST PUSH1 0x0 DUP1 REVERT INVALID LOG2 PUSH5 0x6970667358 0x22 SLT KECCAK256 0xDD 0xB4 DUP13 BYTE SWAP7 0xDF GASPRICE 0xDF SWAP14 0x1E 0xB4 0xB9 0xFB EXP PUSH22 0x69F7CE4999A9CF98FD7F8D6134E646EA2664736F6C63 NUMBER STOP ADDMOD EQ STOP CALLER "},"methodIdentifiers":{"addLiquidity(address,address,uint256,uint256)":"cf6c62ea","factory()":"c45a0155"}}}}}