{"contracts/MockFactory.sol":{"MockFactory":{"abi":[{"inputs":[{"internalType":"address","name":"tokenA","type":"address"},{"internalType":"address","name":"tokenB","type":"address"}],"name":"createPair","outputs":[{"internalType":"address","name":"pair","type":"address"}],"stateMutability":"nonpayable","type":"function"},{"inputs":[{"internalType":"address","name":"","type":"address"},{"internalType":"address","name":"","type":"address"}],"name":"getPair","outputs":[{"internalType":"address","name":"","type":"address"}],"stateMutability":"view","type":"function"}],"evm":{"bytecode":{"linkReferences":{},"object":"60808060405234610016576106da908161001c8239f35b600080fdfe60806040818152600436101561001457600080fd5b600091823560e01c908163c9c6539614610085575063e6a439051461003857600080fd5b34610081578060031936011261008157602091816100546101ed565b9161005d610208565b6001600160a01b039384168252818652828220908416825285522054915191168152f35b5080fd5b83833461008157806003193601126100815761009f6101ed565b6001600160a01b03939084806100b3610208565b169116918183146101b55750818452602094848652838520828652865280848620541661017b5783516104868082019082821067ffffffffffffffff831117610167578691839161021f8339868152858a82015203019086f0801561015d57908491169485928482528188528282209082528752818120936bffffffffffffffffffffffff60a01b9484868254161790558188528282209082528752209182541617905551908152f35b84513d87823e3d90fd5b634e487b7160e01b88526041600452602488fd5b835162461bcd60e51b81526004810187905260136024820152725061697220616c72656164792065786973747360681b6044820152606490fd5b62461bcd60e51b81526020600482015260136024820152724964656e746963616c2061646472657373657360681b6044820152606490fd5b600435906001600160a01b038216820361020357565b600080fd5b602435906001600160a01b03821682036102035756fe60803461008d57601f61048638819003918201601f19168301916001600160401b0383118484101761009257808492604094855283398101031261008d57610052602061004b836100a8565b92016100a8565b600080546001600160a01b039384166001600160a01b031991821617909155600180549290931691161790556040516103c990816100bd8239f35b600080fd5b634e487b7160e01b600052604160045260246000fd5b51906001600160a01b038216820361008d5756fe608060408181526004918236101561001657600080fd5b600092833560e01c9182630dfe16811461031a575081636d9a640a146101955781639cd441da1461007c575063d21220a71461005157600080fd5b3461007857816003193601126100785760015490516001600160a01b039091168152602090f35b5080fd5b91905034610191578060031936011261019157825481516323b872dd60e01b808252338583019081523060208083019190915286356040830152959391926001600160a01b03929091879183918290036060019082908b9087165af18015610187579186939161012096959361016a575b50600154855192835233938301938452306020850152602435604085015291958693919092169183918991839160600190565b03925af19081156101615750610134578280f35b8161015392903d1061015a575b61014b818361033e565b810190610376565b5038808280f35b503d610141565b513d85823e3d90fd5b61018090853d871161015a5761014b818361033e565b50386100ed565b85513d89823e3d90fd5b8280fd5b838334610078576060366003190112610078578235926001600160a01b03906024359060443583811681036103165786158015809161030d575b156102d85786978791610264575b5050826101e8578580f35b600154855163a9059cbb60e01b81526001600160a01b03909216928201928352602083810194909452909592938693911691839190829060400103925af190811561025b575061023d575b8080808085948580f35b6102549060203d811161015a5761014b818361033e565b5081610233565b513d84823e3d90fd5b8154875163a9059cbb60e01b81526001600160a01b03851686820190815260208181019490945290938492891691839190829060400103925af180156102ce576102b0575b86906101dd565b6102c79060203d811161015a5761014b818361033e565b50876102a9565b86513d89823e3d90fd5b855162461bcd60e51b8152602081850152600f60248201526e496e76616c696420616d6f756e747360881b6044820152606490fd5b508315156101cf565b8580fd5b84903461007857816003193601126100785790546001600160a01b03168152602090f35b90601f8019910116810190811067ffffffffffffffff82111761036057604052565b634e487b7160e01b600052604160045260246000fd5b9081602091031261038e5751801515810361038e5790565b600080fdfea264697066735822122082a4328e345759c4a02aa99e183bbb6ca93af1b30a3dfbab70e2642a49ab5afa64736f6c63430008140033a26469706673582212206119c6e6a2d8972ee01f62d2185561fab43344d274afb8d352e521b8efd98d4364736f6c63430008140033","opcodes":"PUSH1 0x80 DUP1 PUSH1 0x40 MSTORE CALLVALUE PUSH2 0x16 JUMPI PUSH2 0x6DA SWAP1 DUP2 PUSH2 0x1C DUP3 CODECOPY RETURN JUMPDEST PUSH1 0x0 DUP1 REVERT INVALID PUSH1 0x80 PUSH1 0x40 DUP2 DUP2 MSTORE PUSH1 0x4 CALLDATASIZE LT ISZERO PUSH2 0x14 JUMPI PUSH1 0x0 DUP1 REVERT JUMPDEST PUSH1 0x0 SWAP2 DUP3 CALLDATALOAD PUSH1 0xE0 SHR SWAP1 DUP2 PUSH4 0xC9C65396 EQ PUSH2 0x85 JUMPI POP PUSH4 0xE6A43905 EQ PUSH2 0x38 JUMPI PUSH1 0x0 DUP1 REVERT JUMPDEST CALLVALUE PUSH2 0x81 JUMPI DUP1 PUSH1 0x3 NOT CALLDATASIZE ADD SLT PUSH2 0x81 JUMPI PUSH1 0x20 SWAP2 DUP2 PUSH2 0x54 PUSH2 0x1ED JUMP JUMPDEST SWAP2 PUSH2 0x5D PUSH2 0x208 JUMP JUMPDEST PUSH1 0x1 PUSH1 0x1 PUSH1 0xA0 SHL SUB SWAP4 DUP5 AND DUP3 MSTORE DUP2 DUP7 MSTORE DUP3 DUP3 KECCAK256 SWAP1 DUP5 AND DUP3 MSTORE DUP6 MSTORE KECCAK256 SLOAD SWAP2 MLOAD SWAP2 AND DUP2 MSTORE RETURN JUMPDEST POP DUP1 REVERT JUMPDEST DUP4 DUP4 CALLVALUE PUSH2 0x81 JUMPI DUP1 PUSH1 0x3 NOT CALLDATASIZE ADD SLT PUSH2 0x81 JUMPI PUSH2 0x9F PUSH2 0x1ED JUMP JUMPDEST PUSH1 0x1 PUSH1 0x1 PUSH1 0xA0 SHL SUB SWAP4 SWAP1 DUP5 DUP1 PUSH2 0xB3 PUSH2 0x208 JUMP JUMPDEST AND SWAP2 AND SWAP2 DUP2 DUP4 EQ PUSH2 0x1B5 JUMPI POP DUP2 DUP5 MSTORE PUSH1 0x20 SWAP5 DUP5 DUP7 MSTORE DUP4 DUP6 KECCAK256 DUP3 DUP7 MSTORE DUP7 MSTORE DUP1 DUP5 DUP7 KECCAK256 SLOAD AND PUSH2 0x17B JUMPI DUP4 MLOAD PUSH2 0x486 DUP1 DUP3 ADD SWAP1 DUP3 DUP3 LT PUSH8 0xFFFFFFFFFFFFFFFF DUP4 GT OR PUSH2 0x167 JUMPI DUP7 SWAP2 DUP4 SWAP2 PUSH2 0x21F DUP4 CODECOPY DUP7 DUP2 MSTORE DUP6 DUP11 DUP3 ADD MSTORE SUB ADD SWAP1 DUP7 CREATE DUP1 ISZERO PUSH2 0x15D JUMPI SWAP1 DUP5 SWAP2 AND SWAP5 DUP6 SWAP3 DUP5 DUP3 MSTORE DUP2 DUP9 MSTORE DUP3 DUP3 KECCAK256 SWAP1 DUP3 MSTORE DUP8 MSTORE DUP2 DUP2 KECCAK256 SWAP4 PUSH12 0xFFFFFFFFFFFFFFFFFFFFFFFF PUSH1 0xA0 SHL SWAP5 DUP5 DUP7 DUP3 SLOAD AND OR SWAP1 SSTORE DUP2 DUP9 MSTORE DUP3 DUP3 KECCAK256 SWAP1 DUP3 MSTORE DUP8 MSTORE KECCAK256 SWAP2 DUP3 SLOAD AND OR SWAP1 SSTORE MLOAD SWAP1 DUP2 MSTORE RETURN JUMPDEST DUP5 MLOAD RETURNDATASIZE DUP8 DUP3 RETURNDATACOPY RETURNDATASIZE SWAP1 REVERT JUMPDEST PUSH4 0x4E487B71 PUSH1 0xE0 SHL DUP9 MSTORE PUSH1 0x41 PUSH1 0x4 MSTORE PUSH1 0x24 DUP9 REVERT JUMPDEST DUP4 MLOAD PUSH3 0x461BCD PUSH1 0xE5 SHL DUP2 MSTORE PUSH1 0x4 DUP2 ADD DUP8 SWAP1 MSTORE PUSH1 0x13 PUSH1 0x24 DUP3 ADD MSTORE PUSH19 0x5061697220616C726561647920657869737473 PUSH1 0x68 SHL PUSH1 0x44 DUP3 ADD MSTORE PUSH1 0x64 SWAP1 REVERT JUMPDEST PUSH3 0x461BCD PUSH1 0xE5 SHL DUP2 MSTORE PUSH1 0x20 PUSH1 0x4 DUP3 ADD MSTORE PUSH1 0x13 PUSH1 0x24 DUP3 ADD MSTORE PUSH19 0x4964656E746963616C20616464726573736573 PUSH1 0x68 SHL PUSH1 0x44 DUP3 ADD MSTORE PUSH1 0x64 SWAP1 REVERT JUMPDEST PUSH1 0x4 CALLDATALOAD SWAP1 PUSH1 0x1 PUSH1 0x1 PUSH1 0xA0 SHL SUB DUP3 AND DUP3 SUB PUSH2 0x203 JUMPI JUMP JUMPDEST PUSH1 0x0 DUP1 REVERT JUMPDEST PUSH1 0x24 CALLDATALOAD SWAP1 PUSH1 0x1 PUSH1 0x1 PUSH1 0xA0 SHL SUB DUP3 AND DUP3 SUB PUSH2 0x203 JUMPI JUMP INVALID PUSH1 0x80 CALLVALUE PUSH2 0x8D JUMPI PUSH1 0x1F PUSH2 0x486 CODESIZE DUP2 SWAP1 SUB SWAP2 DUP3 ADD PUSH1 0x1F NOT AND DUP4 ADD SWAP2 PUSH1 0x1 PUSH1 0x1 PUSH1 0x40 SHL SUB DUP4 GT DUP5 DUP5 LT OR PUSH2 0x92 JUMPI DUP1 DUP5 SWAP3 PUSH1 0x40 SWAP5 DUP6 MSTORE DUP4 CODECOPY DUP2 ADD SUB SLT PUSH2 0x8D JUMPI PUSH2 0x52 PUSH1 0x20 PUSH2 0x4B DUP4 PUSH2 0xA8 JUMP JUMPDEST SWAP3 ADD PUSH2 0xA8 JUMP JUMPDEST PUSH1 0x0 DUP1 SLOAD PUSH1 0x1 PUSH1 0x1 PUSH1 0xA0 SHL SUB SWAP4 DUP5 AND PUSH1 0x1 PUSH1 0x1 PUSH1 0xA0 SHL SUB NOT SWAP2 DUP3 AND OR SWAP1 SWAP2 SSTORE PUSH1 0x1 DUP1 SLOAD SWAP3 SWAP1 SWAP4 AND SWAP2 AND OR SWAP1 SSTORE PUSH1 0x40 MLOAD PUSH2 0x3C9 SWAP1 DUP2 PUSH2 0xBD DUP3 CODECOPY RETURN JUMPDEST PUSH1 0x0 DUP1 REVERT JUMPDEST PUSH4 0x4E487B71 PUSH1 0xE0 SHL PUSH1 0x0 MSTORE PUSH1 0x41 PUSH1 0x4 MSTORE PUSH1 0x24 PUSH1 0x0 REVERT JUMPDEST MLOAD SWAP1 PUSH1 0x1 PUSH1 0x1 PUSH1 0xA0 SHL SUB DUP3 AND DUP3 SUB PUSH2 0x8D JUMPI JUMP INVALID PUSH1 0x80 PUSH1 0x40 DUP2 DUP2 MSTORE PUSH1 0x4 SWAP2 DUP3 CALLDATASIZE LT ISZERO PUSH2 0x16 JUMPI PUSH1 0x0 DUP1 REVERT JUMPDEST PUSH1 0x0 SWAP3 DUP4 CALLDATALOAD PUSH1 0xE0 SHR SWAP2 DUP3 PUSH4 0xDFE1681 EQ PUSH2 0x31A JUMPI POP DUP2 PUSH4 0x6D9A640A EQ PUSH2 0x195 JUMPI DUP2 PUSH4 0x9CD441DA EQ PUSH2 0x7C JUMPI POP PUSH4 0xD21220A7 EQ PUSH2 0x51 JUMPI PUSH1 0x0 DUP1 REVERT JUMPDEST CALLVALUE PUSH2 0x78 JUMPI DUP2 PUSH1 0x3 NOT CALLDATASIZE ADD SLT PUSH2 0x78 JUMPI PUSH1 0x1 SLOAD SWAP1 MLOAD PUSH1 0x1 PUSH1 0x1 PUSH1 0xA0 SHL SUB SWAP1 SWAP2 AND DUP2 MSTORE PUSH1 0x20 SWAP1 RETURN JUMPDEST POP DUP1 REVERT JUMPDEST SWAP2 SWAP1 POP CALLVALUE PUSH2 0x191 JUMPI DUP1 PUSH1 0x3 NOT CALLDATASIZE ADD SLT PUSH2 0x191 JUMPI DUP3 SLOAD DUP2 MLOAD PUSH4 0x23B872DD PUSH1 0xE0 SHL DUP1 DUP3 MSTORE CALLER DUP6 DUP4 ADD SWAP1 DUP2 MSTORE ADDRESS PUSH1 0x20 DUP1 DUP4 ADD SWAP2 SWAP1 SWAP2 MSTORE DUP7 CALLDATALOAD PUSH1 0x40 DUP4 ADD MSTORE SWAP6 SWAP4 SWAP2 SWAP3 PUSH1 0x1 PUSH1 0x1 PUSH1 0xA0 SHL SUB SWAP3 SWAP1 SWAP2 DUP8 SWAP2 DUP4 SWAP2 DUP3 SWAP1 SUB PUSH1 0x60 ADD SWAP1 DUP3 SWAP1 DUP12 SWAP1 DUP8 AND GAS CALL DUP1 ISZERO PUSH2 0x187 JUMPI SWAP2 DUP7 SWAP4 SWAP2 PUSH2 0x120 SWAP7 SWAP6 SWAP4 PUSH2 0x16A JUMPI JUMPDEST POP PUSH1 0x1 SLOAD DUP6 MLOAD SWAP3 DUP4 MSTORE CALLER SWAP4 DUP4 ADD SWAP4 DUP5 MSTORE ADDRESS PUSH1 0x20 DUP6 ADD MSTORE PUSH1 0x24 CALLDATALOAD PUSH1 0x40 DUP6 ADD MSTORE SWAP2 SWAP6 DUP7 SWAP4 SWAP2 SWAP1 SWAP3 AND SWAP2 DUP4 SWAP2 DUP10 SWAP2 DUP4 SWAP2 PUSH1 0x60 ADD SWAP1 JUMP JUMPDEST SUB SWAP3 GAS CALL SWAP1 DUP2 ISZERO PUSH2 0x161 JUMPI POP PUSH2 0x134 JUMPI DUP3 DUP1 RETURN JUMPDEST DUP2 PUSH2 0x153 SWAP3 SWAP1 RETURNDATASIZE LT PUSH2 0x15A JUMPI JUMPDEST PUSH2 0x14B DUP2 DUP4 PUSH2 0x33E JUMP JUMPDEST DUP2 ADD SWAP1 PUSH2 0x376 JUMP JUMPDEST POP CODESIZE DUP1 DUP3 DUP1 RETURN JUMPDEST POP RETURNDATASIZE PUSH2 0x141 JUMP JUMPDEST MLOAD RETURNDATASIZE DUP6 DUP3 RETURNDATACOPY RETURNDATASIZE SWAP1 REVERT JUMPDEST PUSH2 0x180 SWAP1 DUP6 RETURNDATASIZE DUP8 GT PUSH2 0x15A JUMPI PUSH2 0x14B DUP2 DUP4 PUSH2 0x33E JUMP JUMPDEST POP CODESIZE PUSH2 0xED JUMP JUMPDEST DUP6 MLOAD RETURNDATASIZE DUP10 DUP3 RETURNDATACOPY RETURNDATASIZE SWAP1 REVERT JUMPDEST DUP3 DUP1 REVERT JUMPDEST DUP4 DUP4 CALLVALUE PUSH2 0x78 JUMPI PUSH1 0x60 CALLDATASIZE PUSH1 0x3 NOT ADD SLT PUSH2 0x78 JUMPI DUP3 CALLDATALOAD SWAP3 PUSH1 0x1 PUSH1 0x1 PUSH1 0xA0 SHL SUB SWAP1 PUSH1 0x24 CALLDATALOAD SWAP1 PUSH1 0x44 CALLDATALOAD DUP4 DUP2 AND DUP2 SUB PUSH2 0x316 JUMPI DUP7 ISZERO DUP1 ISZERO DUP1 SWAP2 PUSH2 0x30D JUMPI JUMPDEST ISZERO PUSH2 0x2D8 JUMPI DUP7 SWAP8 DUP8 SWAP2 PUSH2 0x264 JUMPI JUMPDEST POP POP DUP3 PUSH2 0x1E8 JUMPI DUP6 DUP1 RETURN JUMPDEST PUSH1 0x1 SLOAD DUP6 MLOAD PUSH4 0xA9059CBB PUSH1 0xE0 SHL DUP2 MSTORE PUSH1 0x1 PUSH1 0x1 PUSH1 0xA0 SHL SUB SWAP1 SWAP3 AND SWAP3 DUP3 ADD SWAP3 DUP4 MSTORE PUSH1 0x20 DUP4 DUP2 ADD SWAP5 SWAP1 SWAP5 MSTORE SWAP1 SWAP6 SWAP3 SWAP4 DUP7 SWAP4 SWAP2 AND SWAP2 DUP4 SWAP2 SWAP1 DUP3 SWAP1 PUSH1 0x40 ADD SUB SWAP3 GAS CALL SWAP1 DUP2 ISZERO PUSH2 0x25B JUMPI POP PUSH2 0x23D JUMPI JUMPDEST DUP1 DUP1 DUP1 DUP1 DUP6 SWAP5 DUP6 DUP1 RETURN JUMPDEST PUSH2 0x254 SWAP1 PUSH1 0x20 RETURNDATASIZE DUP2 GT PUSH2 0x15A JUMPI PUSH2 0x14B DUP2 DUP4 PUSH2 0x33E JUMP JUMPDEST POP DUP2 PUSH2 0x233 JUMP JUMPDEST MLOAD RETURNDATASIZE DUP5 DUP3 RETURNDATACOPY RETURNDATASIZE SWAP1 REVERT JUMPDEST DUP2 SLOAD DUP8 MLOAD PUSH4 0xA9059CBB PUSH1 0xE0 SHL DUP2 MSTORE PUSH1 0x1 PUSH1 0x1 PUSH1 0xA0 SHL SUB DUP6 AND DUP7 DUP3 ADD SWAP1 DUP2 MSTORE PUSH1 0x20 DUP2 DUP2 ADD SWAP5 SWAP1 SWAP5 MSTORE SWAP1 SWAP4 DUP5 SWAP3 DUP10 AND SWAP2 DUP4 SWAP2 SWAP1 DUP3 SWAP1 PUSH1 0x40 ADD SUB SWAP3 GAS CALL DUP1 ISZERO PUSH2 0x2CE JUMPI PUSH2 0x2B0 JUMPI JUMPDEST DUP7 SWAP1 PUSH2 0x1DD JUMP JUMPDEST PUSH2 0x2C7 SWAP1 PUSH1 0x20 RETURNDATASIZE DUP2 GT PUSH2 0x15A JUMPI PUSH2 0x14B DUP2 DUP4 PUSH2 0x33E JUMP JUMPDEST POP DUP8 PUSH2 0x2A9 JUMP JUMPDEST DUP7 MLOAD RETURNDATASIZE DUP10 DUP3 RETURNDATACOPY RETURNDATASIZE SWAP1 REVERT JUMPDEST DUP6 MLOAD PUSH3 0x461BCD PUSH1 0xE5 SHL DUP2 MSTORE PUSH1 0x20 DUP2 DUP6 ADD MSTORE PUSH1 0xF PUSH1 0x24 DUP3 ADD MSTORE PUSH15 0x496E76616C696420616D6F756E7473 PUSH1 0x88 SHL PUSH1 0x44 DUP3 ADD MSTORE PUSH1 0x64 SWAP1 REVERT JUMPDEST POP DUP4 ISZERO ISZERO PUSH2 0x1CF JUMP JUMPDEST DUP6 DUP1 REVERT JUMPDEST DUP5 SWAP1 CALLVALUE PUSH2 0x78 JUMPI DUP2 PUSH1 0x3 NOT CALLDATASIZE ADD SLT PUSH2 0x78 JUMPI SWAP1 SLOAD PUSH1 0x1 PUSH1 0x1 PUSH1 0xA0 SHL SUB AND DUP2 MSTORE PUSH1 0x20 SWAP1 RETURN JUMPDEST SWAP1 PUSH1 0x1F DUP1 NOT SWAP2 ADD AND DUP2 ADD SWAP1 DUP2 LT PUSH8 0xFFFFFFFFFFFFFFFF DUP3 GT OR PUSH2 0x360 JUMPI PUSH1 0x40 MSTORE JUMP JUMPDEST PUSH4 0x4E487B71 PUSH1 0xE0 SHL PUSH1 0x0 MSTORE PUSH1 0x41 PUSH1 0x4 MSTORE PUSH1 0x24 PUSH1 0x0 REVERT JUMPDEST SWAP1 DUP2 PUSH1 0x20 SWAP2 SUB SLT PUSH2 0x38E JUMPI MLOAD DUP1 ISZERO ISZERO DUP2 SUB PUSH2 0x38E JUMPI SWAP1 JUMP JUMPDEST PUSH1 0x0 DUP1 REVERT INVALID LOG2 PUSH5 0x6970667358 0x22 SLT KECCAK256 DUP3 LOG4 ORIGIN DUP15 CALLVALUE JUMPI MSIZE 0xC4 LOG0 0x2A 0xA9 SWAP15 XOR EXTCODESIZE 0xBB PUSH13 0xA93AF1B30A3DFBAB70E2642A49 0xAB GAS STATICCALL PUSH5 0x736F6C6343 STOP ADDMOD EQ STOP CALLER LOG2 PUSH5 0x6970667358 0x22 SLT KECCAK256 PUSH2 0x19C6 0xE6 LOG2 0xD8 SWAP8 0x2E 0xE0 0x1F PUSH3 0xD21855 PUSH2 0xFAB4 CALLER PREVRANDAO 0xD2 PUSH21 0xAFB8D352E521B8EFD98D4364736F6C634300081400 CALLER "},"methodIdentifiers":{"createPair(address,address)":"c9c65396","getPair(address,address)":"e6a43905"}}}}}