{"contracts/MockUniswapRouter.sol":{"MockRouter":{"abi":[{"inputs":[{"internalType":"address","name":"_factory","type":"address"}],"stateMutability":"nonpayable","type":"constructor"},{"inputs":[{"internalType":"address","name":"tokenA","type":"address"},{"internalType":"address","name":"tokenB","type":"address"},{"internalType":"uint256","name":"amountADesired","type":"uint256"},{"internalType":"uint256","name":"amountBDesired","type":"uint256"}],"name":"addLiquidity","outputs":[],"stateMutability":"nonpayable","type":"function"},{"inputs":[],"name":"factory","outputs":[{"internalType":"contract MockFactory","name":"","type":"address"}],"stateMutability":"view","type":"function"},{"inputs":[{"internalType":"uint256","name":"amountIn","type":"uint256"},{"internalType":"uint256","name":"amountOutMin","type":"uint256"},{"internalType":"address[]","name":"path","type":"address[]"},{"internalType":"address","name":"to","type":"address"}],"name":"swapExactTokensForTokens","outputs":[],"stateMutability":"nonpayable","type":"function"}],"evm":{"bytecode":{"linkReferences":{},"object":"60803461007457601f6104ff38819003918201601f19168301916001600160401b038311848410176100795780849260209460405283398101031261007457516001600160a01b0381169081900361007457600080546001600160a01b03191691909117905560405161046f90816100908239f35b600080fd5b634e487b7160e01b600052604160045260246000fdfe608060409080825260048036101561001657600080fd5b600091823560e01c908163472b43f3146101ca57508063c45a0155146101a25763cf6c62ea1461004557600080fd5b3461019e57608036600319011261019e576001600160a01b038135818116810361019957602435908282168203610199578454865163e6a4390560e01b81526001600160a01b03928316868201908152929093166020838101919091529183918516908290819060400103915afa90811561018f578491610161575b501690811561012b57928293823b156101265783926044849284519586938492634e6a20ed60e11b845284359084015260643560248401525af190811561011d575061010a5750f35b610113906103ba565b61011a5780f35b80fd5b513d84823e3d90fd5b505050fd5b606490602085519162461bcd60e51b8352820152601060248201526f14185a5c881b9bdd0818dc99585d195960821b6044820152fd5b610182915060203d8111610188575b61017a81836103e4565b810190610406565b386100c1565b503d610170565b85513d86823e3d90fd5b600080fd5b5080fd5b82843461019e578160031936011261019e57905490516001600160a01b039091168152602090f35b84915034610309576080366003190112610309576044359267ffffffffffffffff918285116103b657366023860112156103b657848201359283116103b65760249236848260051b880101116103b2576001600160a01b03606435818116979193908890036103ae576002830361037f57508288541690821561036d57610252868201610425565b926001101561036d579160209161026e60446102a19501610425565b885163e6a4390560e01b81526001600160a01b039384168882019081529390911660208401529384928391829160400190565b03915afa908115610363578791610345575b501690811561030d5790859291813b156103095783606492865197889586946336cd320560e11b86528481870152359085015260448401525af190811561011d57506102fd575080f35b610306906103ba565b80f35b8380fd5b606490601384602087519362461bcd60e51b85528401528201527214185a5c88191bd95cc81b9bdd08195e1a5cdd606a1b6044820152fd5b61035d915060203d81116101885761017a81836103e4565b876102b3565b85513d89823e3d90fd5b634e487b7160e01b8952603285528589fd5b62461bcd60e51b8152602085820152600c868201526b092dcecc2d8d2c840e0c2e8d60a31b6044820152606490fd5b8880fd5b8680fd5b8580fd5b67ffffffffffffffff81116103ce57604052565b634e487b7160e01b600052604160045260246000fd5b90601f8019910116810190811067ffffffffffffffff8211176103ce57604052565b9081602091031261019957516001600160a01b03811681036101995790565b356001600160a01b0381168103610199579056fea2646970667358221220b20585715e504602fc81683ef17066be975443d10c863c1524619ad4c9d805d664736f6c63430008140033","opcodes":"PUSH1 0x80 CALLVALUE PUSH2 0x74 JUMPI PUSH1 0x1F PUSH2 0x4FF CODESIZE DUP2 SWAP1 SUB SWAP2 DUP3 ADD PUSH1 0x1F NOT AND DUP4 ADD SWAP2 PUSH1 0x1 PUSH1 0x1 PUSH1 0x40 SHL SUB DUP4 GT DUP5 DUP5 LT OR PUSH2 0x79 JUMPI DUP1 DUP5 SWAP3 PUSH1 0x20 SWAP5 PUSH1 0x40 MSTORE DUP4 CODECOPY DUP2 ADD SUB SLT PUSH2 0x74 JUMPI MLOAD PUSH1 0x1 PUSH1 0x1 PUSH1 0xA0 SHL SUB DUP2 AND SWAP1 DUP2 SWAP1 SUB PUSH2 0x74 JUMPI PUSH1 0x0 DUP1 SLOAD PUSH1 0x1 PUSH1 0x1 PUSH1 0xA0 SHL SUB NOT AND SWAP2 SWAP1 SWAP2 OR SWAP1 SSTORE PUSH1 0x40 MLOAD PUSH2 0x46F SWAP1 DUP2 PUSH2 0x90 DUP3 CODECOPY RETURN JUMPDEST PUSH1 0x0 DUP1 REVERT JUMPDEST PUSH4 0x4E487B71 PUSH1 0xE0 SHL PUSH1 0x0 MSTORE PUSH1 0x41 PUSH1 0x4 MSTORE PUSH1 0x24 PUSH1 0x0 REVERT INVALID PUSH1 0x80 PUSH1 0x40 SWAP1 DUP1 DUP3 MSTORE PUSH1 0x4 DUP1 CALLDATASIZE LT ISZERO PUSH2 0x16 JUMPI PUSH1 0x0 DUP1 REVERT JUMPDEST PUSH1 0x0 SWAP2 DUP3 CALLDATALOAD PUSH1 0xE0 SHR SWAP1 DUP2 PUSH4 0x472B43F3 EQ PUSH2 0x1CA JUMPI POP DUP1 PUSH4 0xC45A0155 EQ PUSH2 0x1A2 JUMPI PUSH4 0xCF6C62EA EQ PUSH2 0x45 JUMPI PUSH1 0x0 DUP1 REVERT JUMPDEST CALLVALUE PUSH2 0x19E JUMPI PUSH1 0x80 CALLDATASIZE PUSH1 0x3 NOT ADD SLT PUSH2 0x19E JUMPI PUSH1 0x1 PUSH1 0x1 PUSH1 0xA0 SHL SUB DUP2 CALLDATALOAD DUP2 DUP2 AND DUP2 SUB PUSH2 0x199 JUMPI PUSH1 0x24 CALLDATALOAD SWAP1 DUP3 DUP3 AND DUP3 SUB PUSH2 0x199 JUMPI DUP5 SLOAD DUP7 MLOAD PUSH4 0xE6A43905 PUSH1 0xE0 SHL DUP2 MSTORE PUSH1 0x1 PUSH1 0x1 PUSH1 0xA0 SHL SUB SWAP3 DUP4 AND DUP7 DUP3 ADD SWAP1 DUP2 MSTORE SWAP3 SWAP1 SWAP4 AND PUSH1 0x20 DUP4 DUP2 ADD SWAP2 SWAP1 SWAP2 MSTORE SWAP2 DUP4 SWAP2 DUP6 AND SWAP1 DUP3 SWAP1 DUP2 SWAP1 PUSH1 0x40 ADD SUB SWAP2 GAS STATICCALL SWAP1 DUP2 ISZERO PUSH2 0x18F JUMPI DUP5 SWAP2 PUSH2 0x161 JUMPI JUMPDEST POP AND SWAP1 DUP2 ISZERO PUSH2 0x12B JUMPI SWAP3 DUP3 SWAP4 DUP3 EXTCODESIZE ISZERO PUSH2 0x126 JUMPI DUP4 SWAP3 PUSH1 0x44 DUP5 SWAP3 DUP5 MLOAD SWAP6 DUP7 SWAP4 DUP5 SWAP3 PUSH4 0x4E6A20ED PUSH1 0xE1 SHL DUP5 MSTORE DUP5 CALLDATALOAD SWAP1 DUP5 ADD MSTORE PUSH1 0x64 CALLDATALOAD PUSH1 0x24 DUP5 ADD MSTORE GAS CALL SWAP1 DUP2 ISZERO PUSH2 0x11D JUMPI POP PUSH2 0x10A JUMPI POP RETURN JUMPDEST PUSH2 0x113 SWAP1 PUSH2 0x3BA JUMP JUMPDEST PUSH2 0x11A JUMPI DUP1 RETURN JUMPDEST DUP1 REVERT JUMPDEST MLOAD RETURNDATASIZE DUP5 DUP3 RETURNDATACOPY RETURNDATASIZE SWAP1 REVERT JUMPDEST POP POP POP REVERT JUMPDEST PUSH1 0x64 SWAP1 PUSH1 0x20 DUP6 MLOAD SWAP2 PUSH3 0x461BCD PUSH1 0xE5 SHL DUP4 MSTORE DUP3 ADD MSTORE PUSH1 0x10 PUSH1 0x24 DUP3 ADD MSTORE PUSH16 0x14185A5C881B9BDD0818DC99585D1959 PUSH1 0x82 SHL PUSH1 0x44 DUP3 ADD MSTORE REVERT JUMPDEST PUSH2 0x182 SWAP2 POP PUSH1 0x20 RETURNDATASIZE DUP2 GT PUSH2 0x188 JUMPI JUMPDEST PUSH2 0x17A DUP2 DUP4 PUSH2 0x3E4 JUMP JUMPDEST DUP2 ADD SWAP1 PUSH2 0x406 JUMP JUMPDEST CODESIZE PUSH2 0xC1 JUMP JUMPDEST POP RETURNDATASIZE PUSH2 0x170 JUMP JUMPDEST DUP6 MLOAD RETURNDATASIZE DUP7 DUP3 RETURNDATACOPY RETURNDATASIZE SWAP1 REVERT JUMPDEST PUSH1 0x0 DUP1 REVERT JUMPDEST POP DUP1 REVERT JUMPDEST DUP3 DUP5 CALLVALUE PUSH2 0x19E JUMPI DUP2 PUSH1 0x3 NOT CALLDATASIZE ADD SLT PUSH2 0x19E JUMPI SWAP1 SLOAD SWAP1 MLOAD PUSH1 0x1 PUSH1 0x1 PUSH1 0xA0 SHL SUB SWAP1 SWAP2 AND DUP2 MSTORE PUSH1 0x20 SWAP1 RETURN JUMPDEST DUP5 SWAP2 POP CALLVALUE PUSH2 0x309 JUMPI PUSH1 0x80 CALLDATASIZE PUSH1 0x3 NOT ADD SLT PUSH2 0x309 JUMPI PUSH1 0x44 CALLDATALOAD SWAP3 PUSH8 0xFFFFFFFFFFFFFFFF SWAP2 DUP3 DUP6 GT PUSH2 0x3B6 JUMPI CALLDATASIZE PUSH1 0x23 DUP7 ADD SLT ISZERO PUSH2 0x3B6 JUMPI DUP5 DUP3 ADD CALLDATALOAD SWAP3 DUP4 GT PUSH2 0x3B6 JUMPI PUSH1 0x24 SWAP3 CALLDATASIZE DUP5 DUP3 PUSH1 0x5 SHL DUP9 ADD ADD GT PUSH2 0x3B2 JUMPI PUSH1 0x1 PUSH1 0x1 PUSH1 0xA0 SHL SUB PUSH1 0x64 CALLDATALOAD DUP2 DUP2 AND SWAP8 SWAP2 SWAP4 SWAP1 DUP9 SWAP1 SUB PUSH2 0x3AE JUMPI PUSH1 0x2 DUP4 SUB PUSH2 0x37F JUMPI POP DUP3 DUP9 SLOAD AND SWAP1 DUP3 ISZERO PUSH2 0x36D JUMPI PUSH2 0x252 DUP7 DUP3 ADD PUSH2 0x425 JUMP JUMPDEST SWAP3 PUSH1 0x1 LT ISZERO PUSH2 0x36D JUMPI SWAP2 PUSH1 0x20 SWAP2 PUSH2 0x26E PUSH1 0x44 PUSH2 0x2A1 SWAP6 ADD PUSH2 0x425 JUMP JUMPDEST DUP9 MLOAD PUSH4 0xE6A43905 PUSH1 0xE0 SHL DUP2 MSTORE PUSH1 0x1 PUSH1 0x1 PUSH1 0xA0 SHL SUB SWAP4 DUP5 AND DUP9 DUP3 ADD SWAP1 DUP2 MSTORE SWAP4 SWAP1 SWAP2 AND PUSH1 0x20 DUP5 ADD MSTORE SWAP4 DUP5 SWAP3 DUP4 SWAP2 DUP3 SWAP2 PUSH1 0x40 ADD SWAP1 JUMP JUMPDEST SUB SWAP2 GAS STATICCALL SWAP1 DUP2 ISZERO PUSH2 0x363 JUMPI DUP8 SWAP2 PUSH2 0x345 JUMPI JUMPDEST POP AND SWAP1 DUP2 ISZERO PUSH2 0x30D JUMPI SWAP1 DUP6 SWAP3 SWAP2 DUP2 EXTCODESIZE ISZERO PUSH2 0x309 JUMPI DUP4 PUSH1 0x64 SWAP3 DUP7 MLOAD SWAP8 DUP9 SWAP6 DUP7 SWAP5 PUSH4 0x36CD3205 PUSH1 0xE1 SHL DUP7 MSTORE DUP5 DUP2 DUP8 ADD MSTORE CALLDATALOAD SWAP1 DUP6 ADD MSTORE PUSH1 0x44 DUP5 ADD MSTORE GAS CALL SWAP1 DUP2 ISZERO PUSH2 0x11D JUMPI POP PUSH2 0x2FD JUMPI POP DUP1 RETURN JUMPDEST PUSH2 0x306 SWAP1 PUSH2 0x3BA JUMP JUMPDEST DUP1 RETURN JUMPDEST DUP4 DUP1 REVERT JUMPDEST PUSH1 0x64 SWAP1 PUSH1 0x13 DUP5 PUSH1 0x20 DUP8 MLOAD SWAP4 PUSH3 0x461BCD PUSH1 0xE5 SHL DUP6 MSTORE DUP5 ADD MSTORE DUP3 ADD MSTORE PUSH19 0x14185A5C88191BD95CC81B9BDD08195E1A5CDD PUSH1 0x6A SHL PUSH1 0x44 DUP3 ADD MSTORE REVERT JUMPDEST PUSH2 0x35D SWAP2 POP PUSH1 0x20 RETURNDATASIZE DUP2 GT PUSH2 0x188 JUMPI PUSH2 0x17A DUP2 DUP4 PUSH2 0x3E4 JUMP JUMPDEST DUP8 PUSH2 0x2B3 JUMP JUMPDEST DUP6 MLOAD RETURNDATASIZE DUP10 DUP3 RETURNDATACOPY RETURNDATASIZE SWAP1 REVERT JUMPDEST PUSH4 0x4E487B71 PUSH1 0xE0 SHL DUP10 MSTORE PUSH1 0x32 DUP6 MSTORE DUP6 DUP10 REVERT JUMPDEST PUSH3 0x461BCD PUSH1 0xE5 SHL DUP2 MSTORE PUSH1 0x20 DUP6 DUP3 ADD MSTORE PUSH1 0xC DUP7 DUP3 ADD MSTORE PUSH12 0x92DCECC2D8D2C840E0C2E8D PUSH1 0xA3 SHL PUSH1 0x44 DUP3 ADD MSTORE PUSH1 0x64 SWAP1 REVERT JUMPDEST DUP9 DUP1 REVERT JUMPDEST DUP7 DUP1 REVERT JUMPDEST DUP6 DUP1 REVERT JUMPDEST PUSH8 0xFFFFFFFFFFFFFFFF DUP2 GT PUSH2 0x3CE JUMPI PUSH1 0x40 MSTORE JUMP JUMPDEST PUSH4 0x4E487B71 PUSH1 0xE0 SHL PUSH1 0x0 MSTORE PUSH1 0x41 PUSH1 0x4 MSTORE PUSH1 0x24 PUSH1 0x0 REVERT JUMPDEST SWAP1 PUSH1 0x1F DUP1 NOT SWAP2 ADD AND DUP2 ADD SWAP1 DUP2 LT PUSH8 0xFFFFFFFFFFFFFFFF DUP3 GT OR PUSH2 0x3CE JUMPI PUSH1 0x40 MSTORE JUMP JUMPDEST SWAP1 DUP2 PUSH1 0x20 SWAP2 SUB SLT PUSH2 0x199 JUMPI MLOAD PUSH1 0x1 PUSH1 0x1 PUSH1 0xA0 SHL SUB DUP2 AND DUP2 SUB PUSH2 0x199 JUMPI SWAP1 JUMP JUMPDEST CALLDATALOAD PUSH1 0x1 PUSH1 0x1 PUSH1 0xA0 SHL SUB DUP2 AND DUP2 SUB PUSH2 0x199 JUMPI SWAP1 JUMP INVALID LOG2 PUSH5 0x6970667358 0x22 SLT KECCAK256 0xB2 SDIV DUP6 PUSH18 0x5E504602FC81683EF17066BE975443D10C86 EXTCODECOPY ISZERO 0x24 PUSH2 0x9AD4 0xC9 0xD8 SDIV 0xD6 PUSH5 0x736F6C6343 STOP ADDMOD EQ STOP CALLER "},"methodIdentifiers":{"addLiquidity(address,address,uint256,uint256)":"cf6c62ea","factory()":"c45a0155","swapExactTokensForTokens(uint256,uint256,address[],address)":"472b43f3"}}}}}