{"contracts/Lending.sol":{"LendingPool":{"abi":[{"inputs":[{"internalType":"address","name":"usdc","type":"address"},{"internalType":"address","name":"wbtc","type":"address"},{"internalType":"address","name":"router","type":"address"}],"stateMutability":"nonpayable","type":"constructor"},{"anonymous":false,"inputs":[{"indexed":false,"internalType":"bytes32","name":"id","type":"bytes32"},{"indexed":true,"internalType":"address","name":"lender","type":"address"},{"indexed":false,"internalType":"uint256","name":"amount","type":"uint256"},{"indexed":false,"internalType":"uint256","name":"duration","type":"uint256"},{"indexed":false,"internalType":"uint256","name":"interest","type":"uint256"},{"indexed":false,"internalType":"uint256","name":"depositBalance","type":"uint256"}],"name":"DepositEvent","type":"event"},{"anonymous":false,"inputs":[{"indexed":false,"internalType":"bytes32","name":"id","type":"bytes32"},{"indexed":false,"internalType":"uint256","name":"amount","type":"uint256"},{"indexed":false,"internalType":"uint256","name":"collateral","type":"uint256"},{"indexed":true,"internalType":"address","name":"borrower","type":"address"},{"indexed":false,"internalType":"address[]","name":"lenders","type":"address[]"}],"name":"LoanCreated","type":"event"},{"anonymous":false,"inputs":[{"indexed":false,"internalType":"bytes32","name":"loanId","type":"bytes32"},{"indexed":false,"internalType":"address","name":"borrower","type":"address"},{"indexed":false,"internalType":"uint256","name":"amount","type":"uint256"},{"indexed":false,"internalType":"bool","name":"fullyRepaid","type":"bool"}],"name":"Payout","type":"event"},{"inputs":[{"internalType":"address","name":"","type":"address"}],"name":"assetPrice","outputs":[{"internalType":"uint256","name":"","type":"uint256"}],"stateMutability":"view","type":"function"},{"inputs":[],"name":"availableLiquidity","outputs":[{"internalType":"uint256","name":"","type":"uint256"}],"stateMutability":"view","type":"function"},{"inputs":[{"internalType":"address","name":"asset","type":"address"},{"internalType":"uint256","name":"amount","type":"uint256"},{"internalType":"uint256","name":"interest","type":"uint256"},{"internalType":"uint256","name":"duration","type":"uint256"}],"name":"deposit","outputs":[{"components":[{"internalType":"bytes32","name":"id","type":"bytes32"},{"internalType":"address","name":"lender","type":"address"},{"internalType":"uint256","name":"amount","type":"uint256"},{"internalType":"uint256","name":"duration","type":"uint256"},{"internalType":"uint256","name":"interest","type":"uint256"},{"internalType":"uint256","name":"depositBalance","type":"uint256"},{"internalType":"uint256","name":"receieveAmount","type":"uint256"}],"internalType":"struct LendingPool.Deposit","name":"","type":"tuple"}],"stateMutability":"nonpayable","type":"function"},{"inputs":[{"internalType":"uint256","name":"","type":"uint256"}],"name":"depositsList","outputs":[{"internalType":"bytes32","name":"","type":"bytes32"}],"stateMutability":"view","type":"function"},{"inputs":[],"name":"exchangeRate","outputs":[{"internalType":"uint256","name":"","type":"uint256"}],"stateMutability":"view","type":"function"},{"inputs":[{"internalType":"address","name":"asset","type":"address"}],"name":"getPrice","outputs":[{"internalType":"uint256","name":"","type":"uint256"}],"stateMutability":"view","type":"function"},{"inputs":[{"internalType":"address","name":"","type":"address"}],"name":"lenders","outputs":[{"internalType":"uint256","name":"deposit","type":"uint256"},{"internalType":"uint256","name":"totalContributed","type":"uint256"},{"internalType":"uint256","name":"remainingDeposit","type":"uint256"}],"stateMutability":"view","type":"function"},{"inputs":[{"internalType":"uint256","name":"","type":"uint256"}],"name":"lendersList","outputs":[{"internalType":"address","name":"","type":"address"}],"stateMutability":"view","type":"function"},{"inputs":[{"internalType":"uint256","name":"amount","type":"uint256"},{"internalType":"uint256","name":"duration","type":"uint256"},{"internalType":"uint256","name":"interestRate","type":"uint256"}],"name":"loan","outputs":[],"stateMutability":"nonpayable","type":"function"},{"inputs":[],"name":"loanCount","outputs":[{"internalType":"uint256","name":"","type":"uint256"}],"stateMutability":"view","type":"function"},{"inputs":[{"internalType":"bytes32","name":"","type":"bytes32"}],"name":"loans","outputs":[{"internalType":"bytes32","name":"id","type":"bytes32"},{"internalType":"uint256","name":"amount","type":"uint256"},{"internalType":"uint256","name":"collateral","type":"uint256"},{"internalType":"uint256","name":"interest","type":"uint256"},{"internalType":"address","name":"borrower","type":"address"},{"internalType":"uint256","name":"remainingCollateral","type":"uint256"},{"internalType":"uint256","name":"remainingAsset","type":"uint256"},{"internalType":"bool","name":"isActive","type":"bool"},{"internalType":"uint256","name":"duration","type":"uint256"}],"stateMutability":"view","type":"function"},{"inputs":[{"internalType":"uint256","name":"","type":"uint256"}],"name":"loansList","outputs":[{"internalType":"bytes32","name":"","type":"bytes32"}],"stateMutability":"view","type":"function"},{"inputs":[],"name":"owner","outputs":[{"internalType":"address","name":"","type":"address"}],"stateMutability":"view","type":"function"},{"inputs":[{"internalType":"bytes32","name":"loanId","type":"bytes32"},{"internalType":"uint256","name":"usdcAmount","type":"uint256"}],"name":"payouts","outputs":[],"stateMutability":"nonpayable","type":"function"},{"inputs":[],"name":"poolBalance","outputs":[{"internalType":"uint256","name":"","type":"uint256"}],"stateMutability":"view","type":"function"},{"inputs":[{"internalType":"address","name":"asset","type":"address"},{"internalType":"address","name":"storkPubKey","type":"address"},{"internalType":"bytes32","name":"id","type":"bytes32"},{"internalType":"uint256","name":"recvTime","type":"uint256"},{"internalType":"int256","name":"quantizedValue","type":"int256"},{"internalType":"bytes32","name":"publisherMerkleRoot","type":"bytes32"},{"internalType":"bytes32","name":"valueComputeAlgHash","type":"bytes32"},{"internalType":"uint256","name":"value","type":"uint256"},{"internalType":"bytes32","name":"r","type":"bytes32"},{"internalType":"bytes32","name":"s","type":"bytes32"},{"internalType":"uint8","name":"v","type":"uint8"}],"name":"setPrice","outputs":[],"stateMutability":"nonpayable","type":"function"},{"inputs":[],"name":"storkVerifier","outputs":[{"internalType":"address","name":"","type":"address"}],"stateMutability":"view","type":"function"},{"inputs":[],"name":"uniswapRouter","outputs":[{"internalType":"address","name":"","type":"address"}],"stateMutability":"view","type":"function"},{"inputs":[],"name":"usdcToken","outputs":[{"internalType":"address","name":"","type":"address"}],"stateMutability":"view","type":"function"},{"inputs":[],"name":"wbtctoken","outputs":[{"internalType":"address","name":"","type":"address"}],"stateMutability":"view","type":"function"},{"stateMutability":"payable","type":"receive"}],"evm":{"bytecode":{"linkReferences":{},"object":"608034620000d457601f620018fb38819003918201601f19168301916001600160401b03831184841017620000d957808492606094604052833981010312620000d4576200004d81620000ef565b906200006a60406200006260208401620000ef565b9201620000ef565b60018060a01b03199273acc0a0cf13571d30b4b8637996f5d6d774d4fd628460005416176000553384600a541617600a5560018060a01b03928380921685600b541617600b551683600c541617600c551690600d541617600d556040516117f69081620001058239f35b600080fd5b634e487b7160e01b600052604160045260246000fd5b51906001600160a01b0382168203620000d45756fe608080604052600436101561001d575b50361561001b57600080fd5b005b60003560e01c90816311eac8551461157f57508063164ba87e1461155657806328fd10d7146115055780633ba0b9a9146114e75780633fc811fd1461149657806341976e091461054457806363117aee1461145f578063735de9f71461143657806374375359146113c457806380f2122c14610f4f578063864a83b2146107195780638da5cb5b146106f057806391b620301461059c57806396365d441461057e578063b883b05814610544578063c4a90815146104b3578063c7c9222214610471578063ce63094d14610453578063ce88b439146101345763e545a6ad14610106573861000f565b3461012f57600036600319011261012f576000546040516001600160a01b039091168152602090f35b600080fd5b3461012f57608036600319011261012f5761014d6115a3565b600060c060405161015d8161163f565b82815260208082018490526040808301859052606083018590526080830185905260a0830185905292909101929092526001600160a01b03928316600090815260058352600b5491516323b872dd60e01b81523360048201523060248083019190915235604482015293849260649284929091165af1801561044757610418575b506040513360601b6bffffffffffffffffffffffff1916602082019081524260348301529061021a81605481015b03601f19810183528261165b565b51902033600052600360205260406000206102386024358254611695565b9055610248602435600154611695565b80600155610268606461025f6044356024356116a2565b04602435611695565b604051916102758361163f565b83835233602084015260243560408401526064356060840152604435608084015260a083015260c08201526040516060810181811067ffffffffffffffff821117610402576040526024358152600260208201600081526040830190602435825233600052600360205260406000209351845551600184015551910155600854600160401b8110156104025761032c6103158260018694016008556115b9565b819391549060031b91821b91600019901b19161790565b905560075491600160401b8310156104025761035083600160e095016007556115f0565b81549060031b9033821b9160018060a01b03901b191617905560015460405191825260243560208301526064356040830152604435606083015260808201527fa98e9660b4ea7a3bbe85c8cf362cbb97a6a44321ab6390e63c9427153d55b0e160a03392a260c0604051918051835260018060a01b03602082015116602084015260408101516040840152606081015160608401526080810151608084015260a081015160a0840152015160c0820152f35b634e487b7160e01b600052604160045260246000fd5b6104399060203d602011610440575b610431818361165b565b81019061167d565b50806101de565b503d610427565b6040513d6000823e3d90fd5b3461012f57600036600319011261012f576020600654604051908152f35b3461012f57602036600319011261012f5760043560075481101561012f5761049a6020916115f0565b905460405160039290921b1c6001600160a01b03168152f35b3461012f57602036600319011261012f57600435600052600460205261012060406000208054906001810154906002810154600382015460018060a01b03600484015416600a84015491600b85015493600d60ff600c8801541696015496604051988952602089015260408801526060870152608086015260a085015260c0840152151560e0830152610100820152f35b3461012f57602036600319011261012f576001600160a01b036105656115a3565b1660005260056020526020604060002054604051908152f35b3461012f57600036600319011261012f576020600154604051908152f35b3461012f5761016036600319011261012f576105b66115a3565b6001600160a01b03602435818116929083900361012f5760e43592610144803560ff811680910361012f5784600a541633036106a1576020918560005416936000604051958694859363a61dd89960e01b8552600485015260443560248501526064356044850152608435606485015260a435608485015260c43560a48501528a60c4850152610104803560e4860152610124908135908601528401525af190811561044757600091610683575b5061066b57005b82600255166000526005602052604060002055600080f35b61069b915060203d811161044057610431818361165b565b84610664565b60405162461bcd60e51b815260206004820152602160248201527f4f6e6c79206f776e65722063616e2063616c6c20746869732066756e6374696f6044820152603760f91b6064820152608490fd5b3461012f57600036600319011261012f57600a546040516001600160a01b039091168152602090f35b3461012f57606036600319011261012f5760043515610eff576014600435026004358104601403610936576064810460021b606482048104600414606483041517156109365761076c9060648304611695565b600b546040516323b872dd60e01b8152336004820152306024820152606480850460448301529293929091602091839182906000906001600160a01b03165af1801561044757610ee0575b50600754916107c5836116ed565b926107cf816116ed565b6107d8826116ed565b946107eb6107e5846116ed565b936116ed565b6000936000955b600754871015610ed0576004358610156109635761080f876115f0565b9790549760018060a01b03898260031b1c1660005260036020528a60026040600020015480610857575b50505061084c919293949596975061171f565b9594939291906107f2565b6108a28461089c94938d61089c838e9f9a9b9c9d9e8f829861087b8e60043561172e565b811161094c579a8b998a965b60038d901b1c6001600160a01b03169261173b565b5261173b565b5260646108b1604435846116a2565b046108bc848861173b565b52670de0b6b3a764000093828581020485148315171561093657826108fd916108ed61084c976004359084026116b5565b6108f7878c61173b565b52611695565b9960018060a01b039160031b1c166000526003602052610926600260406000200191825461172e565b9055879695949392918a8c610839565b634e487b7160e01b600052601160045260246000fd5b506109598d60043561172e565b9a8b998a96610887565b94909550969296959091955b60043511610e8b576040519081606081011067ffffffffffffffff60608401111761040257606082016040526002825260208201604036823760018060a01b03600b541690835115610e75575260018060a01b03600c5416825160011015610e75576040830152600d546001600160a01b03169142600281011061093657610a2892606460008094604051968795869485936338ed173960e01b855204600484015283602484015260a0604484015260a483019061174f565b30606483015260024201608483015203925af1801561044757610de9575b506040513360601b6bffffffffffffffffffffffff19166020820190815242603483015290610a78816054810161020c565b51902093610a8842602435611695565b9260405197886101c081011067ffffffffffffffff6101c08b011117610402576101c0890160405286895260043560208a01528560408a015260443560608a01523360808a01528760a08a015260c089015260e088015261010087015261012086015281610140860152600061016086015260016101808601526101a08501528160005260046020526040600020845181556020850151600182015560408501516002820155606085015160038201556004810160018060a01b036080870151166bffffffffffffffffffffffff60a01b82541617905560a085015180519067ffffffffffffffff821161040257600160401b82116104025760206005840191610b978484548186558561178c565b0190600052602060002060005b838110610dcc575050505060c085015180519067ffffffffffffffff821161040257600160401b82116104025760206006840191610be78484548186558561178c565b0190600052602060002060005b838110610db8575050505060e085015180519067ffffffffffffffff821161040257600160401b82116104025760206007840191610c378484548186558561178c565b0190600052602060002060005b838110610da4575050505061010085015180519067ffffffffffffffff821161040257600160401b82116104025760206008840191610c888484548186558561178c565b0190600052602060002060005b838110610d905750505050600981019461012081015180519067ffffffffffffffff821161040257600160401b821161040257602090610cda838a54818c558b61178c565b019660005260206000209660005b828110610d7c57877fe95aad1ea29bd64c71ab2803a305028e9ea541d5edd9b3b31a848ea73501656b888888600d6101a08a610140810151600a850155610160810151600b850155600c8401610180820151151560ff801983541691161790550151910155604051918252600435602083015260408201526080606082015280610d773394608083019061174f565b0390a2005b60019060208351930192818b015501610ce8565b600190602084519401938184015501610c95565b600190602084519401938184015501610c44565b600190602084519401938184015501610bf4565b82516001600160a01b031681830155602090920191600101610ba4565b3d806000833e610df9818361165b565b81019060208183031261012f5780519067ffffffffffffffff821161012f570181601f8201121561012f57805190602080610e33846116d5565b610e40604051918261165b565b848152019260051b82010192831161012f57602001905b828210610e65575050610a46565b8151815260209182019101610e57565b634e487b7160e01b600052603260045260246000fd5b60405162461bcd60e51b815260206004820152601d60248201527f496e73756666696369656e74206c656e646572206c69717569646974790000006044820152606490fd5b949095509692969590919561096f565b610ef89060203d60201161044057610431818361165b565b50826107b7565b60405162461bcd60e51b815260206004820152602260248201527f4c6f616e20616d6f756e74206d7573742062652067726561746572207468616e604482015261020360f41b6064820152608490fd5b3461012f57604036600319011261012f576004356000526004602052604060002060ff600c820154161561138a5760048101546001600160a01b0316330361133957600b546040516323b872dd60e01b81523360048201523060248083019190915235604482015290602090829060649082906000906001600160a01b03165af180156104475761131a575b5060006024355b600583015482101561131357670de0b6b3a76400006110186110078460098701611627565b905460018701549160031b1c6116a2565b046110268360088601611627565b90549060031b1c6110378183611695565b9182841015611245579161105a6110659261105f8361105a88976110d6996116a2565b6116b5565b946116a2565b600b549093906020906001600160a01b03166110848360058901611627565b905460039190911b1c6001600160a01b0316906110a18786611695565b60405163a9059cbb60e01b81526001600160a01b03909316600484015260248301529094859190829060009082906044820190565b03925af191821561044757611131936110ff93611226575b506111266110ff8360078901611627565b6111128294925492838360031b1c61172e565b919060031b91821b91600019901b19161790565b905560088501611627565b90555b60016000600783018054915b8281106111a9575b505050807fdc376abd09229a842ac7d8bcadc9017651f1f1b8490750870cae0ecd4aedf67492608092611198575b50604051906004358252336020830152602435604083015215156060820152a1005b600c01805460ff1916905583611176565b6111b38183611627565b9054600391821b1c159081159161120a575b506111d8576111d39061171f565b611140565b5050505060807fdc376abd09229a842ac7d8bcadc9017651f1f1b8490750870cae0ecd4aedf674916000918193611148565b90506112198260088801611627565b9054911b1c1515866111c5565b61123e9060203d60201161044057610431818361165b565b50866110ee565b9391928360206112a69560018060a01b03600b54166112678760058c01611627565b905460405163a9059cbb60e01b815260039290921b1c6001600160a01b0316600482015260248101929092529096879190829060009082906044820190565b03925af1918215610447576112ee956112c4936112f4575b5061172e565b936112d56110ff8460078901611627565b90556112e76110ff8360088801611627565b905561171f565b90610fe2565b61130c9060203d60201161044057610431818361165b565b50886112be565b5050611134565b6113329060203d60201161044057610431818361165b565b5081610fdb565b60405162461bcd60e51b8152602060048201526024808201527f4f6e6c792074686520626f72726f7765722063616e20726570617920746865206044820152633637b0b760e11b6064820152608490fd5b60405162461bcd60e51b81526020600482015260126024820152714c6f616e206973206e6f742061637469766560701b6044820152606490fd5b3461012f57600036600319011261012f576000806007545b8083106113ee57602082604051908152f35b9061142961142f916113ff856115f0565b9054600391821b1c6001600160a01b03166000908152602091909152604090206002015490611695565b9261171f565b91906113dc565b3461012f57600036600319011261012f57600d546040516001600160a01b039091168152602090f35b3461012f57602036600319011261012f5760043560085481101561012f576114886020916115b9565b90546040519160031b1c8152f35b3461012f57602036600319011261012f5760043560095481101561012f5760209060096000527f6e1540171b6c0c960b71a7020d9f60077f6af931a8bbf590da0223dacf75c7af0154604051908152f35b3461012f57600036600319011261012f576020600254604051908152f35b3461012f57602036600319011261012f576001600160a01b036115266115a3565b16600052600360205260606040600020805490600260018201549101549060405192835260208301526040820152f35b3461012f57600036600319011261012f57600c546040516001600160a01b039091168152602090f35b3461012f57600036600319011261012f57600b546001600160a01b03168152602090f35b600435906001600160a01b038216820361012f57565b600854811015610e755760086000527ff3f7a9fe364faab93b216da50a3214154f22a0a2b415b23a84c8169e8b636ee30190600090565b600754811015610e755760076000527fa66cc928b5edb82af9bd49922954155ab7b0942694bea4ce44661d9a8736c6880190600090565b8054821015610e755760005260206000200190600090565b60e0810190811067ffffffffffffffff82111761040257604052565b90601f8019910116810190811067ffffffffffffffff82111761040257604052565b9081602091031261012f5751801515810361012f5790565b9190820180921161093657565b8181029291811591840414171561093657565b81156116bf570490565b634e487b7160e01b600052601260045260246000fd5b67ffffffffffffffff81116104025760051b60200190565b906116f7826116d5565b611704604051918261165b565b8281528092611715601f19916116d5565b0190602036910137565b60001981146109365760010190565b9190820391821161093657565b8051821015610e755760209160051b010190565b90815180825260208080930193019160005b82811061176f575050505090565b83516001600160a01b031685529381019392810192600101611761565b909182811061179a57505050565b60009182526020822092830192015b8281106117b557505050565b8181556001016117a956fea264697066735822122019aff6e687ef6d43b17dd711f7f935333c9609a31cd57f8f42e8f0c5f5797d4764736f6c63430008140033","opcodes":"PUSH1 0x80 CALLVALUE PUSH3 0xD4 JUMPI PUSH1 0x1F PUSH3 0x18FB CODESIZE DUP2 SWAP1 SUB SWAP2 DUP3 ADD PUSH1 0x1F NOT AND DUP4 ADD SWAP2 PUSH1 0x1 PUSH1 0x1 PUSH1 0x40 SHL SUB DUP4 GT DUP5 DUP5 LT OR PUSH3 0xD9 JUMPI DUP1 DUP5 SWAP3 PUSH1 0x60 SWAP5 PUSH1 0x40 MSTORE DUP4 CODECOPY DUP2 ADD SUB SLT PUSH3 0xD4 JUMPI PUSH3 0x4D DUP2 PUSH3 0xEF JUMP JUMPDEST SWAP1 PUSH3 0x6A PUSH1 0x40 PUSH3 0x62 PUSH1 0x20 DUP5 ADD PUSH3 0xEF JUMP JUMPDEST SWAP3 ADD PUSH3 0xEF JUMP JUMPDEST PUSH1 0x1 DUP1 PUSH1 0xA0 SHL SUB NOT SWAP3 PUSH20 0xACC0A0CF13571D30B4B8637996F5D6D774D4FD62 DUP5 PUSH1 0x0 SLOAD AND OR PUSH1 0x0 SSTORE CALLER DUP5 PUSH1 0xA SLOAD AND OR PUSH1 0xA SSTORE PUSH1 0x1 DUP1 PUSH1 0xA0 SHL SUB SWAP3 DUP4 DUP1 SWAP3 AND DUP6 PUSH1 0xB SLOAD AND OR PUSH1 0xB SSTORE AND DUP4 PUSH1 0xC SLOAD AND OR PUSH1 0xC SSTORE AND SWAP1 PUSH1 0xD SLOAD AND OR PUSH1 0xD SSTORE PUSH1 0x40 MLOAD PUSH2 0x17F6 SWAP1 DUP2 PUSH3 0x105 DUP3 CODECOPY RETURN JUMPDEST PUSH1 0x0 DUP1 REVERT JUMPDEST PUSH4 0x4E487B71 PUSH1 0xE0 SHL PUSH1 0x0 MSTORE PUSH1 0x41 PUSH1 0x4 MSTORE PUSH1 0x24 PUSH1 0x0 REVERT JUMPDEST MLOAD SWAP1 PUSH1 0x1 PUSH1 0x1 PUSH1 0xA0 SHL SUB DUP3 AND DUP3 SUB PUSH3 0xD4 JUMPI JUMP INVALID PUSH1 0x80 DUP1 PUSH1 0x40 MSTORE PUSH1 0x4 CALLDATASIZE LT ISZERO PUSH2 0x1D JUMPI JUMPDEST POP CALLDATASIZE ISZERO PUSH2 0x1B JUMPI PUSH1 0x0 DUP1 REVERT JUMPDEST STOP JUMPDEST PUSH1 0x0 CALLDATALOAD PUSH1 0xE0 SHR SWAP1 DUP2 PUSH4 0x11EAC855 EQ PUSH2 0x157F JUMPI POP DUP1 PUSH4 0x164BA87E EQ PUSH2 0x1556 JUMPI DUP1 PUSH4 0x28FD10D7 EQ PUSH2 0x1505 JUMPI DUP1 PUSH4 0x3BA0B9A9 EQ PUSH2 0x14E7 JUMPI DUP1 PUSH4 0x3FC811FD EQ PUSH2 0x1496 JUMPI DUP1 PUSH4 0x41976E09 EQ PUSH2 0x544 JUMPI DUP1 PUSH4 0x63117AEE EQ PUSH2 0x145F JUMPI DUP1 PUSH4 0x735DE9F7 EQ PUSH2 0x1436 JUMPI DUP1 PUSH4 0x74375359 EQ PUSH2 0x13C4 JUMPI DUP1 PUSH4 0x80F2122C EQ PUSH2 0xF4F JUMPI DUP1 PUSH4 0x864A83B2 EQ PUSH2 0x719 JUMPI DUP1 PUSH4 0x8DA5CB5B EQ PUSH2 0x6F0 JUMPI DUP1 PUSH4 0x91B62030 EQ PUSH2 0x59C JUMPI DUP1 PUSH4 0x96365D44 EQ PUSH2 0x57E JUMPI DUP1 PUSH4 0xB883B058 EQ PUSH2 0x544 JUMPI DUP1 PUSH4 0xC4A90815 EQ PUSH2 0x4B3 JUMPI DUP1 PUSH4 0xC7C92222 EQ PUSH2 0x471 JUMPI DUP1 PUSH4 0xCE63094D EQ PUSH2 0x453 JUMPI DUP1 PUSH4 0xCE88B439 EQ PUSH2 0x134 JUMPI PUSH4 0xE545A6AD EQ PUSH2 0x106 JUMPI CODESIZE PUSH2 0xF JUMP JUMPDEST CALLVALUE PUSH2 0x12F JUMPI PUSH1 0x0 CALLDATASIZE PUSH1 0x3 NOT ADD SLT PUSH2 0x12F JUMPI PUSH1 0x0 SLOAD PUSH1 0x40 MLOAD PUSH1 0x1 PUSH1 0x1 PUSH1 0xA0 SHL SUB SWAP1 SWAP2 AND DUP2 MSTORE PUSH1 0x20 SWAP1 RETURN JUMPDEST PUSH1 0x0 DUP1 REVERT JUMPDEST CALLVALUE PUSH2 0x12F JUMPI PUSH1 0x80 CALLDATASIZE PUSH1 0x3 NOT ADD SLT PUSH2 0x12F JUMPI PUSH2 0x14D PUSH2 0x15A3 JUMP JUMPDEST PUSH1 0x0 PUSH1 0xC0 PUSH1 0x40 MLOAD PUSH2 0x15D DUP2 PUSH2 0x163F JUMP JUMPDEST DUP3 DUP2 MSTORE PUSH1 0x20 DUP1 DUP3 ADD DUP5 SWAP1 MSTORE PUSH1 0x40 DUP1 DUP4 ADD DUP6 SWAP1 MSTORE PUSH1 0x60 DUP4 ADD DUP6 SWAP1 MSTORE PUSH1 0x80 DUP4 ADD DUP6 SWAP1 MSTORE PUSH1 0xA0 DUP4 ADD DUP6 SWAP1 MSTORE SWAP3 SWAP1 SWAP2 ADD SWAP3 SWAP1 SWAP3 MSTORE PUSH1 0x1 PUSH1 0x1 PUSH1 0xA0 SHL SUB SWAP3 DUP4 AND PUSH1 0x0 SWAP1 DUP2 MSTORE PUSH1 0x5 DUP4 MSTORE PUSH1 0xB SLOAD SWAP2 MLOAD PUSH4 0x23B872DD PUSH1 0xE0 SHL DUP2 MSTORE CALLER PUSH1 0x4 DUP3 ADD MSTORE ADDRESS PUSH1 0x24 DUP1 DUP4 ADD SWAP2 SWAP1 SWAP2 MSTORE CALLDATALOAD PUSH1 0x44 DUP3 ADD MSTORE SWAP4 DUP5 SWAP3 PUSH1 0x64 SWAP3 DUP5 SWAP3 SWAP1 SWAP2 AND GAS CALL DUP1 ISZERO PUSH2 0x447 JUMPI PUSH2 0x418 JUMPI JUMPDEST POP PUSH1 0x40 MLOAD CALLER PUSH1 0x60 SHL PUSH12 0xFFFFFFFFFFFFFFFFFFFFFFFF NOT AND PUSH1 0x20 DUP3 ADD SWAP1 DUP2 MSTORE TIMESTAMP PUSH1 0x34 DUP4 ADD MSTORE SWAP1 PUSH2 0x21A DUP2 PUSH1 0x54 DUP2 ADD JUMPDEST SUB PUSH1 0x1F NOT DUP2 ADD DUP4 MSTORE DUP3 PUSH2 0x165B JUMP JUMPDEST MLOAD SWAP1 KECCAK256 CALLER PUSH1 0x0 MSTORE PUSH1 0x3 PUSH1 0x20 MSTORE PUSH1 0x40 PUSH1 0x0 KECCAK256 PUSH2 0x238 PUSH1 0x24 CALLDATALOAD DUP3 SLOAD PUSH2 0x1695 JUMP JUMPDEST SWAP1 SSTORE PUSH2 0x248 PUSH1 0x24 CALLDATALOAD PUSH1 0x1 SLOAD PUSH2 0x1695 JUMP JUMPDEST DUP1 PUSH1 0x1 SSTORE PUSH2 0x268 PUSH1 0x64 PUSH2 0x25F PUSH1 0x44 CALLDATALOAD PUSH1 0x24 CALLDATALOAD PUSH2 0x16A2 JUMP JUMPDEST DIV PUSH1 0x24 CALLDATALOAD PUSH2 0x1695 JUMP JUMPDEST PUSH1 0x40 MLOAD SWAP2 PUSH2 0x275 DUP4 PUSH2 0x163F JUMP JUMPDEST DUP4 DUP4 MSTORE CALLER PUSH1 0x20 DUP5 ADD MSTORE PUSH1 0x24 CALLDATALOAD PUSH1 0x40 DUP5 ADD MSTORE PUSH1 0x64 CALLDATALOAD PUSH1 0x60 DUP5 ADD MSTORE PUSH1 0x44 CALLDATALOAD PUSH1 0x80 DUP5 ADD MSTORE PUSH1 0xA0 DUP4 ADD MSTORE PUSH1 0xC0 DUP3 ADD MSTORE PUSH1 0x40 MLOAD PUSH1 0x60 DUP2 ADD DUP2 DUP2 LT PUSH8 0xFFFFFFFFFFFFFFFF DUP3 GT OR PUSH2 0x402 JUMPI PUSH1 0x40 MSTORE PUSH1 0x24 CALLDATALOAD DUP2 MSTORE PUSH1 0x2 PUSH1 0x20 DUP3 ADD PUSH1 0x0 DUP2 MSTORE PUSH1 0x40 DUP4 ADD SWAP1 PUSH1 0x24 CALLDATALOAD DUP3 MSTORE CALLER PUSH1 0x0 MSTORE PUSH1 0x3 PUSH1 0x20 MSTORE PUSH1 0x40 PUSH1 0x0 KECCAK256 SWAP4 MLOAD DUP5 SSTORE MLOAD PUSH1 0x1 DUP5 ADD SSTORE MLOAD SWAP2 ADD SSTORE PUSH1 0x8 SLOAD PUSH1 0x1 PUSH1 0x40 SHL DUP2 LT ISZERO PUSH2 0x402 JUMPI PUSH2 0x32C PUSH2 0x315 DUP3 PUSH1 0x1 DUP7 SWAP5 ADD PUSH1 0x8 SSTORE PUSH2 0x15B9 JUMP JUMPDEST DUP2 SWAP4 SWAP2 SLOAD SWAP1 PUSH1 0x3 SHL SWAP2 DUP3 SHL SWAP2 PUSH1 0x0 NOT SWAP1 SHL NOT AND OR SWAP1 JUMP JUMPDEST SWAP1 SSTORE PUSH1 0x7 SLOAD SWAP2 PUSH1 0x1 PUSH1 0x40 SHL DUP4 LT ISZERO PUSH2 0x402 JUMPI PUSH2 0x350 DUP4 PUSH1 0x1 PUSH1 0xE0 SWAP6 ADD PUSH1 0x7 SSTORE PUSH2 0x15F0 JUMP JUMPDEST DUP2 SLOAD SWAP1 PUSH1 0x3 SHL SWAP1 CALLER DUP3 SHL SWAP2 PUSH1 0x1 DUP1 PUSH1 0xA0 SHL SUB SWAP1 SHL NOT AND OR SWAP1 SSTORE PUSH1 0x1 SLOAD PUSH1 0x40 MLOAD SWAP2 DUP3 MSTORE PUSH1 0x24 CALLDATALOAD PUSH1 0x20 DUP4 ADD MSTORE PUSH1 0x64 CALLDATALOAD PUSH1 0x40 DUP4 ADD MSTORE PUSH1 0x44 CALLDATALOAD PUSH1 0x60 DUP4 ADD MSTORE PUSH1 0x80 DUP3 ADD MSTORE PUSH32 0xA98E9660B4EA7A3BBE85C8CF362CBB97A6A44321AB6390E63C9427153D55B0E1 PUSH1 0xA0 CALLER SWAP3 LOG2 PUSH1 0xC0 PUSH1 0x40 MLOAD SWAP2 DUP1 MLOAD DUP4 MSTORE PUSH1 0x1 DUP1 PUSH1 0xA0 SHL SUB PUSH1 0x20 DUP3 ADD MLOAD AND PUSH1 0x20 DUP5 ADD MSTORE PUSH1 0x40 DUP2 ADD MLOAD PUSH1 0x40 DUP5 ADD MSTORE PUSH1 0x60 DUP2 ADD MLOAD PUSH1 0x60 DUP5 ADD MSTORE PUSH1 0x80 DUP2 ADD MLOAD PUSH1 0x80 DUP5 ADD MSTORE PUSH1 0xA0 DUP2 ADD MLOAD PUSH1 0xA0 DUP5 ADD MSTORE ADD MLOAD PUSH1 0xC0 DUP3 ADD MSTORE RETURN JUMPDEST PUSH4 0x4E487B71 PUSH1 0xE0 SHL PUSH1 0x0 MSTORE PUSH1 0x41 PUSH1 0x4 MSTORE PUSH1 0x24 PUSH1 0x0 REVERT JUMPDEST PUSH2 0x439 SWAP1 PUSH1 0x20 RETURNDATASIZE PUSH1 0x20 GT PUSH2 0x440 JUMPI JUMPDEST PUSH2 0x431 DUP2 DUP4 PUSH2 0x165B JUMP JUMPDEST DUP2 ADD SWAP1 PUSH2 0x167D JUMP JUMPDEST POP DUP1 PUSH2 0x1DE JUMP JUMPDEST POP RETURNDATASIZE PUSH2 0x427 JUMP JUMPDEST PUSH1 0x40 MLOAD RETURNDATASIZE PUSH1 0x0 DUP3 RETURNDATACOPY RETURNDATASIZE SWAP1 REVERT JUMPDEST CALLVALUE PUSH2 0x12F JUMPI PUSH1 0x0 CALLDATASIZE PUSH1 0x3 NOT ADD SLT PUSH2 0x12F JUMPI PUSH1 0x20 PUSH1 0x6 SLOAD PUSH1 0x40 MLOAD SWAP1 DUP2 MSTORE RETURN JUMPDEST CALLVALUE PUSH2 0x12F JUMPI PUSH1 0x20 CALLDATASIZE PUSH1 0x3 NOT ADD SLT PUSH2 0x12F JUMPI PUSH1 0x4 CALLDATALOAD PUSH1 0x7 SLOAD DUP2 LT ISZERO PUSH2 0x12F JUMPI PUSH2 0x49A PUSH1 0x20 SWAP2 PUSH2 0x15F0 JUMP JUMPDEST SWAP1 SLOAD PUSH1 0x40 MLOAD PUSH1 0x3 SWAP3 SWAP1 SWAP3 SHL SHR PUSH1 0x1 PUSH1 0x1 PUSH1 0xA0 SHL SUB AND DUP2 MSTORE RETURN JUMPDEST CALLVALUE PUSH2 0x12F JUMPI PUSH1 0x20 CALLDATASIZE PUSH1 0x3 NOT ADD SLT PUSH2 0x12F JUMPI PUSH1 0x4 CALLDATALOAD PUSH1 0x0 MSTORE PUSH1 0x4 PUSH1 0x20 MSTORE PUSH2 0x120 PUSH1 0x40 PUSH1 0x0 KECCAK256 DUP1 SLOAD SWAP1 PUSH1 0x1 DUP2 ADD SLOAD SWAP1 PUSH1 0x2 DUP2 ADD SLOAD PUSH1 0x3 DUP3 ADD SLOAD PUSH1 0x1 DUP1 PUSH1 0xA0 SHL SUB PUSH1 0x4 DUP5 ADD SLOAD AND PUSH1 0xA DUP5 ADD SLOAD SWAP2 PUSH1 0xB DUP6 ADD SLOAD SWAP4 PUSH1 0xD PUSH1 0xFF PUSH1 0xC DUP9 ADD SLOAD AND SWAP7 ADD SLOAD SWAP7 PUSH1 0x40 MLOAD SWAP9 DUP10 MSTORE PUSH1 0x20 DUP10 ADD MSTORE PUSH1 0x40 DUP9 ADD MSTORE PUSH1 0x60 DUP8 ADD MSTORE PUSH1 0x80 DUP7 ADD MSTORE PUSH1 0xA0 DUP6 ADD MSTORE PUSH1 0xC0 DUP5 ADD MSTORE ISZERO ISZERO PUSH1 0xE0 DUP4 ADD MSTORE PUSH2 0x100 DUP3 ADD MSTORE RETURN JUMPDEST CALLVALUE PUSH2 0x12F JUMPI PUSH1 0x20 CALLDATASIZE PUSH1 0x3 NOT ADD SLT PUSH2 0x12F JUMPI PUSH1 0x1 PUSH1 0x1 PUSH1 0xA0 SHL SUB PUSH2 0x565 PUSH2 0x15A3 JUMP JUMPDEST AND PUSH1 0x0 MSTORE PUSH1 0x5 PUSH1 0x20 MSTORE PUSH1 0x20 PUSH1 0x40 PUSH1 0x0 KECCAK256 SLOAD PUSH1 0x40 MLOAD SWAP1 DUP2 MSTORE RETURN JUMPDEST CALLVALUE PUSH2 0x12F JUMPI PUSH1 0x0 CALLDATASIZE PUSH1 0x3 NOT ADD SLT PUSH2 0x12F JUMPI PUSH1 0x20 PUSH1 0x1 SLOAD PUSH1 0x40 MLOAD SWAP1 DUP2 MSTORE RETURN JUMPDEST CALLVALUE PUSH2 0x12F JUMPI PUSH2 0x160 CALLDATASIZE PUSH1 0x3 NOT ADD SLT PUSH2 0x12F JUMPI PUSH2 0x5B6 PUSH2 0x15A3 JUMP JUMPDEST PUSH1 0x1 PUSH1 0x1 PUSH1 0xA0 SHL SUB PUSH1 0x24 CALLDATALOAD DUP2 DUP2 AND SWAP3 SWAP1 DUP4 SWAP1 SUB PUSH2 0x12F JUMPI PUSH1 0xE4 CALLDATALOAD SWAP3 PUSH2 0x144 DUP1 CALLDATALOAD PUSH1 0xFF DUP2 AND DUP1 SWAP2 SUB PUSH2 0x12F JUMPI DUP5 PUSH1 0xA SLOAD AND CALLER SUB PUSH2 0x6A1 JUMPI PUSH1 0x20 SWAP2 DUP6 PUSH1 0x0 SLOAD AND SWAP4 PUSH1 0x0 PUSH1 0x40 MLOAD SWAP6 DUP7 SWAP5 DUP6 SWAP4 PUSH4 0xA61DD899 PUSH1 0xE0 SHL DUP6 MSTORE PUSH1 0x4 DUP6 ADD MSTORE PUSH1 0x44 CALLDATALOAD PUSH1 0x24 DUP6 ADD MSTORE PUSH1 0x64 CALLDATALOAD PUSH1 0x44 DUP6 ADD MSTORE PUSH1 0x84 CALLDATALOAD PUSH1 0x64 DUP6 ADD MSTORE PUSH1 0xA4 CALLDATALOAD PUSH1 0x84 DUP6 ADD MSTORE PUSH1 0xC4 CALLDATALOAD PUSH1 0xA4 DUP6 ADD MSTORE DUP11 PUSH1 0xC4 DUP6 ADD MSTORE PUSH2 0x104 DUP1 CALLDATALOAD PUSH1 0xE4 DUP7 ADD MSTORE PUSH2 0x124 SWAP1 DUP2 CALLDATALOAD SWAP1 DUP7 ADD MSTORE DUP5 ADD MSTORE GAS CALL SWAP1 DUP2 ISZERO PUSH2 0x447 JUMPI PUSH1 0x0 SWAP2 PUSH2 0x683 JUMPI JUMPDEST POP PUSH2 0x66B JUMPI STOP JUMPDEST DUP3 PUSH1 0x2 SSTORE AND PUSH1 0x0 MSTORE PUSH1 0x5 PUSH1 0x20 MSTORE PUSH1 0x40 PUSH1 0x0 KECCAK256 SSTORE PUSH1 0x0 DUP1 RETURN JUMPDEST PUSH2 0x69B SWAP2 POP PUSH1 0x20 RETURNDATASIZE DUP2 GT PUSH2 0x440 JUMPI PUSH2 0x431 DUP2 DUP4 PUSH2 0x165B JUMP JUMPDEST DUP5 PUSH2 0x664 JUMP JUMPDEST PUSH1 0x40 MLOAD PUSH3 0x461BCD PUSH1 0xE5 SHL DUP2 MSTORE PUSH1 0x20 PUSH1 0x4 DUP3 ADD MSTORE PUSH1 0x21 PUSH1 0x24 DUP3 ADD MSTORE PUSH32 0x4F6E6C79206F776E65722063616E2063616C6C20746869732066756E6374696F PUSH1 0x44 DUP3 ADD MSTORE PUSH1 0x37 PUSH1 0xF9 SHL PUSH1 0x64 DUP3 ADD MSTORE PUSH1 0x84 SWAP1 REVERT JUMPDEST CALLVALUE PUSH2 0x12F JUMPI PUSH1 0x0 CALLDATASIZE PUSH1 0x3 NOT ADD SLT PUSH2 0x12F JUMPI PUSH1 0xA SLOAD PUSH1 0x40 MLOAD PUSH1 0x1 PUSH1 0x1 PUSH1 0xA0 SHL SUB SWAP1 SWAP2 AND DUP2 MSTORE PUSH1 0x20 SWAP1 RETURN JUMPDEST CALLVALUE PUSH2 0x12F JUMPI PUSH1 0x60 CALLDATASIZE PUSH1 0x3 NOT ADD SLT PUSH2 0x12F JUMPI PUSH1 0x4 CALLDATALOAD ISZERO PUSH2 0xEFF JUMPI PUSH1 0x14 PUSH1 0x4 CALLDATALOAD MUL PUSH1 0x4 CALLDATALOAD DUP2 DIV PUSH1 0x14 SUB PUSH2 0x936 JUMPI PUSH1 0x64 DUP2 DIV PUSH1 0x2 SHL PUSH1 0x64 DUP3 DIV DUP2 DIV PUSH1 0x4 EQ PUSH1 0x64 DUP4 DIV ISZERO OR ISZERO PUSH2 0x936 JUMPI PUSH2 0x76C SWAP1 PUSH1 0x64 DUP4 DIV PUSH2 0x1695 JUMP JUMPDEST PUSH1 0xB SLOAD PUSH1 0x40 MLOAD PUSH4 0x23B872DD PUSH1 0xE0 SHL DUP2 MSTORE CALLER PUSH1 0x4 DUP3 ADD MSTORE ADDRESS PUSH1 0x24 DUP3 ADD MSTORE PUSH1 0x64 DUP1 DUP6 DIV PUSH1 0x44 DUP4 ADD MSTORE SWAP3 SWAP4 SWAP3 SWAP1 SWAP2 PUSH1 0x20 SWAP2 DUP4 SWAP2 DUP3 SWAP1 PUSH1 0x0 SWAP1 PUSH1 0x1 PUSH1 0x1 PUSH1 0xA0 SHL SUB AND GAS CALL DUP1 ISZERO PUSH2 0x447 JUMPI PUSH2 0xEE0 JUMPI JUMPDEST POP PUSH1 0x7 SLOAD SWAP2 PUSH2 0x7C5 DUP4 PUSH2 0x16ED JUMP JUMPDEST SWAP3 PUSH2 0x7CF DUP2 PUSH2 0x16ED JUMP JUMPDEST PUSH2 0x7D8 DUP3 PUSH2 0x16ED JUMP JUMPDEST SWAP5 PUSH2 0x7EB PUSH2 0x7E5 DUP5 PUSH2 0x16ED JUMP JUMPDEST SWAP4 PUSH2 0x16ED JUMP JUMPDEST PUSH1 0x0 SWAP4 PUSH1 0x0 SWAP6 JUMPDEST PUSH1 0x7 SLOAD DUP8 LT ISZERO PUSH2 0xED0 JUMPI PUSH1 0x4 CALLDATALOAD DUP7 LT ISZERO PUSH2 0x963 JUMPI PUSH2 0x80F DUP8 PUSH2 0x15F0 JUMP JUMPDEST SWAP8 SWAP1 SLOAD SWAP8 PUSH1 0x1 DUP1 PUSH1 0xA0 SHL SUB DUP10 DUP3 PUSH1 0x3 SHL SHR AND PUSH1 0x0 MSTORE PUSH1 0x3 PUSH1 0x20 MSTORE DUP11 PUSH1 0x2 PUSH1 0x40 PUSH1 0x0 KECCAK256 ADD SLOAD DUP1 PUSH2 0x857 JUMPI JUMPDEST POP POP POP PUSH2 0x84C SWAP2 SWAP3 SWAP4 SWAP5 SWAP6 SWAP7 SWAP8 POP PUSH2 0x171F JUMP JUMPDEST SWAP6 SWAP5 SWAP4 SWAP3 SWAP2 SWAP1 PUSH2 0x7F2 JUMP JUMPDEST PUSH2 0x8A2 DUP5 PUSH2 0x89C SWAP5 SWAP4 DUP14 PUSH2 0x89C DUP4 DUP15 SWAP16 SWAP11 SWAP12 SWAP13 SWAP14 SWAP15 DUP16 DUP3 SWAP9 PUSH2 0x87B DUP15 PUSH1 0x4 CALLDATALOAD PUSH2 0x172E JUMP JUMPDEST DUP2 GT PUSH2 0x94C JUMPI SWAP11 DUP12 SWAP10 DUP11 SWAP7 JUMPDEST PUSH1 0x3 DUP14 SWAP1 SHL SHR PUSH1 0x1 PUSH1 0x1 PUSH1 0xA0 SHL SUB AND SWAP3 PUSH2 0x173B JUMP JUMPDEST MSTORE PUSH2 0x173B JUMP JUMPDEST MSTORE PUSH1 0x64 PUSH2 0x8B1 PUSH1 0x44 CALLDATALOAD DUP5 PUSH2 0x16A2 JUMP JUMPDEST DIV PUSH2 0x8BC DUP5 DUP9 PUSH2 0x173B JUMP JUMPDEST MSTORE PUSH8 0xDE0B6B3A7640000 SWAP4 DUP3 DUP6 DUP2 MUL DIV DUP6 EQ DUP4 ISZERO OR ISZERO PUSH2 0x936 JUMPI DUP3 PUSH2 0x8FD SWAP2 PUSH2 0x8ED PUSH2 0x84C SWAP8 PUSH1 0x4 CALLDATALOAD SWAP1 DUP5 MUL PUSH2 0x16B5 JUMP JUMPDEST PUSH2 0x8F7 DUP8 DUP13 PUSH2 0x173B JUMP JUMPDEST MSTORE PUSH2 0x1695 JUMP JUMPDEST SWAP10 PUSH1 0x1 DUP1 PUSH1 0xA0 SHL SUB SWAP2 PUSH1 0x3 SHL SHR AND PUSH1 0x0 MSTORE PUSH1 0x3 PUSH1 0x20 MSTORE PUSH2 0x926 PUSH1 0x2 PUSH1 0x40 PUSH1 0x0 KECCAK256 ADD SWAP2 DUP3 SLOAD PUSH2 0x172E JUMP JUMPDEST SWAP1 SSTORE DUP8 SWAP7 SWAP6 SWAP5 SWAP4 SWAP3 SWAP2 DUP11 DUP13 PUSH2 0x839 JUMP JUMPDEST PUSH4 0x4E487B71 PUSH1 0xE0 SHL PUSH1 0x0 MSTORE PUSH1 0x11 PUSH1 0x4 MSTORE PUSH1 0x24 PUSH1 0x0 REVERT JUMPDEST POP PUSH2 0x959 DUP14 PUSH1 0x4 CALLDATALOAD PUSH2 0x172E JUMP JUMPDEST SWAP11 DUP12 SWAP10 DUP11 SWAP7 PUSH2 0x887 JUMP JUMPDEST SWAP5 SWAP1 SWAP6 POP SWAP7 SWAP3 SWAP7 SWAP6 SWAP1 SWAP2 SWAP6 JUMPDEST PUSH1 0x4 CALLDATALOAD GT PUSH2 0xE8B JUMPI PUSH1 0x40 MLOAD SWAP1 DUP2 PUSH1 0x60 DUP2 ADD LT PUSH8 0xFFFFFFFFFFFFFFFF PUSH1 0x60 DUP5 ADD GT OR PUSH2 0x402 JUMPI PUSH1 0x60 DUP3 ADD PUSH1 0x40 MSTORE PUSH1 0x2 DUP3 MSTORE PUSH1 0x20 DUP3 ADD PUSH1 0x40 CALLDATASIZE DUP3 CALLDATACOPY PUSH1 0x1 DUP1 PUSH1 0xA0 SHL SUB PUSH1 0xB SLOAD AND SWAP1 DUP4 MLOAD ISZERO PUSH2 0xE75 JUMPI MSTORE PUSH1 0x1 DUP1 PUSH1 0xA0 SHL SUB PUSH1 0xC SLOAD AND DUP3 MLOAD PUSH1 0x1 LT ISZERO PUSH2 0xE75 JUMPI PUSH1 0x40 DUP4 ADD MSTORE PUSH1 0xD SLOAD PUSH1 0x1 PUSH1 0x1 PUSH1 0xA0 SHL SUB AND SWAP2 TIMESTAMP PUSH1 0x2 DUP2 ADD LT PUSH2 0x936 JUMPI PUSH2 0xA28 SWAP3 PUSH1 0x64 PUSH1 0x0 DUP1 SWAP5 PUSH1 0x40 MLOAD SWAP7 DUP8 SWAP6 DUP7 SWAP5 DUP6 SWAP4 PUSH4 0x38ED1739 PUSH1 0xE0 SHL DUP6 MSTORE DIV PUSH1 0x4 DUP5 ADD MSTORE DUP4 PUSH1 0x24 DUP5 ADD MSTORE PUSH1 0xA0 PUSH1 0x44 DUP5 ADD MSTORE PUSH1 0xA4 DUP4 ADD SWAP1 PUSH2 0x174F JUMP JUMPDEST ADDRESS PUSH1 0x64 DUP4 ADD MSTORE PUSH1 0x2 TIMESTAMP ADD PUSH1 0x84 DUP4 ADD MSTORE SUB SWAP3 GAS CALL DUP1 ISZERO PUSH2 0x447 JUMPI PUSH2 0xDE9 JUMPI JUMPDEST POP PUSH1 0x40 MLOAD CALLER PUSH1 0x60 SHL PUSH12 0xFFFFFFFFFFFFFFFFFFFFFFFF NOT AND PUSH1 0x20 DUP3 ADD SWAP1 DUP2 MSTORE TIMESTAMP PUSH1 0x34 DUP4 ADD MSTORE SWAP1 PUSH2 0xA78 DUP2 PUSH1 0x54 DUP2 ADD PUSH2 0x20C JUMP JUMPDEST MLOAD SWAP1 KECCAK256 SWAP4 PUSH2 0xA88 TIMESTAMP PUSH1 0x24 CALLDATALOAD PUSH2 0x1695 JUMP JUMPDEST SWAP3 PUSH1 0x40 MLOAD SWAP8 DUP9 PUSH2 0x1C0 DUP2 ADD LT PUSH8 0xFFFFFFFFFFFFFFFF PUSH2 0x1C0 DUP12 ADD GT OR PUSH2 0x402 JUMPI PUSH2 0x1C0 DUP10 ADD PUSH1 0x40 MSTORE DUP7 DUP10 MSTORE PUSH1 0x4 CALLDATALOAD PUSH1 0x20 DUP11 ADD MSTORE DUP6 PUSH1 0x40 DUP11 ADD MSTORE PUSH1 0x44 CALLDATALOAD PUSH1 0x60 DUP11 ADD MSTORE CALLER PUSH1 0x80 DUP11 ADD MSTORE DUP8 PUSH1 0xA0 DUP11 ADD MSTORE PUSH1 0xC0 DUP10 ADD MSTORE PUSH1 0xE0 DUP9 ADD MSTORE PUSH2 0x100 DUP8 ADD MSTORE PUSH2 0x120 DUP7 ADD MSTORE DUP2 PUSH2 0x140 DUP7 ADD MSTORE PUSH1 0x0 PUSH2 0x160 DUP7 ADD MSTORE PUSH1 0x1 PUSH2 0x180 DUP7 ADD MSTORE PUSH2 0x1A0 DUP6 ADD MSTORE DUP2 PUSH1 0x0 MSTORE PUSH1 0x4 PUSH1 0x20 MSTORE PUSH1 0x40 PUSH1 0x0 KECCAK256 DUP5 MLOAD DUP2 SSTORE PUSH1 0x20 DUP6 ADD MLOAD PUSH1 0x1 DUP3 ADD SSTORE PUSH1 0x40 DUP6 ADD MLOAD PUSH1 0x2 DUP3 ADD SSTORE PUSH1 0x60 DUP6 ADD MLOAD PUSH1 0x3 DUP3 ADD SSTORE PUSH1 0x4 DUP2 ADD PUSH1 0x1 DUP1 PUSH1 0xA0 SHL SUB PUSH1 0x80 DUP8 ADD MLOAD AND PUSH12 0xFFFFFFFFFFFFFFFFFFFFFFFF PUSH1 0xA0 SHL DUP3 SLOAD AND OR SWAP1 SSTORE PUSH1 0xA0 DUP6 ADD MLOAD DUP1 MLOAD SWAP1 PUSH8 0xFFFFFFFFFFFFFFFF DUP3 GT PUSH2 0x402 JUMPI PUSH1 0x1 PUSH1 0x40 SHL DUP3 GT PUSH2 0x402 JUMPI PUSH1 0x20 PUSH1 0x5 DUP5 ADD SWAP2 PUSH2 0xB97 DUP5 DUP5 SLOAD DUP2 DUP7 SSTORE DUP6 PUSH2 0x178C JUMP JUMPDEST ADD SWAP1 PUSH1 0x0 MSTORE PUSH1 0x20 PUSH1 0x0 KECCAK256 PUSH1 0x0 JUMPDEST DUP4 DUP2 LT PUSH2 0xDCC JUMPI POP POP POP POP PUSH1 0xC0 DUP6 ADD MLOAD DUP1 MLOAD SWAP1 PUSH8 0xFFFFFFFFFFFFFFFF DUP3 GT PUSH2 0x402 JUMPI PUSH1 0x1 PUSH1 0x40 SHL DUP3 GT PUSH2 0x402 JUMPI PUSH1 0x20 PUSH1 0x6 DUP5 ADD SWAP2 PUSH2 0xBE7 DUP5 DUP5 SLOAD DUP2 DUP7 SSTORE DUP6 PUSH2 0x178C JUMP JUMPDEST ADD SWAP1 PUSH1 0x0 MSTORE PUSH1 0x20 PUSH1 0x0 KECCAK256 PUSH1 0x0 JUMPDEST DUP4 DUP2 LT PUSH2 0xDB8 JUMPI POP POP POP POP PUSH1 0xE0 DUP6 ADD MLOAD DUP1 MLOAD SWAP1 PUSH8 0xFFFFFFFFFFFFFFFF DUP3 GT PUSH2 0x402 JUMPI PUSH1 0x1 PUSH1 0x40 SHL DUP3 GT PUSH2 0x402 JUMPI PUSH1 0x20 PUSH1 0x7 DUP5 ADD SWAP2 PUSH2 0xC37 DUP5 DUP5 SLOAD DUP2 DUP7 SSTORE DUP6 PUSH2 0x178C JUMP JUMPDEST ADD SWAP1 PUSH1 0x0 MSTORE PUSH1 0x20 PUSH1 0x0 KECCAK256 PUSH1 0x0 JUMPDEST DUP4 DUP2 LT PUSH2 0xDA4 JUMPI POP POP POP POP PUSH2 0x100 DUP6 ADD MLOAD DUP1 MLOAD SWAP1 PUSH8 0xFFFFFFFFFFFFFFFF DUP3 GT PUSH2 0x402 JUMPI PUSH1 0x1 PUSH1 0x40 SHL DUP3 GT PUSH2 0x402 JUMPI PUSH1 0x20 PUSH1 0x8 DUP5 ADD SWAP2 PUSH2 0xC88 DUP5 DUP5 SLOAD DUP2 DUP7 SSTORE DUP6 PUSH2 0x178C JUMP JUMPDEST ADD SWAP1 PUSH1 0x0 MSTORE PUSH1 0x20 PUSH1 0x0 KECCAK256 PUSH1 0x0 JUMPDEST DUP4 DUP2 LT PUSH2 0xD90 JUMPI POP POP POP POP PUSH1 0x9 DUP2 ADD SWAP5 PUSH2 0x120 DUP2 ADD MLOAD DUP1 MLOAD SWAP1 PUSH8 0xFFFFFFFFFFFFFFFF DUP3 GT PUSH2 0x402 JUMPI PUSH1 0x1 PUSH1 0x40 SHL DUP3 GT PUSH2 0x402 JUMPI PUSH1 0x20 SWAP1 PUSH2 0xCDA DUP4 DUP11 SLOAD DUP2 DUP13 SSTORE DUP12 PUSH2 0x178C JUMP JUMPDEST ADD SWAP7 PUSH1 0x0 MSTORE PUSH1 0x20 PUSH1 0x0 KECCAK256 SWAP7 PUSH1 0x0 JUMPDEST DUP3 DUP2 LT PUSH2 0xD7C JUMPI DUP8 PUSH32 0xE95AAD1EA29BD64C71AB2803A305028E9EA541D5EDD9B3B31A848EA73501656B DUP9 DUP9 DUP9 PUSH1 0xD PUSH2 0x1A0 DUP11 PUSH2 0x140 DUP2 ADD MLOAD PUSH1 0xA DUP6 ADD SSTORE PUSH2 0x160 DUP2 ADD MLOAD PUSH1 0xB DUP6 ADD SSTORE PUSH1 0xC DUP5 ADD PUSH2 0x180 DUP3 ADD MLOAD ISZERO ISZERO PUSH1 0xFF DUP1 NOT DUP4 SLOAD AND SWAP2 AND OR SWAP1 SSTORE ADD MLOAD SWAP2 ADD SSTORE PUSH1 0x40 MLOAD SWAP2 DUP3 MSTORE PUSH1 0x4 CALLDATALOAD PUSH1 0x20 DUP4 ADD MSTORE PUSH1 0x40 DUP3 ADD MSTORE PUSH1 0x80 PUSH1 0x60 DUP3 ADD MSTORE DUP1 PUSH2 0xD77 CALLER SWAP5 PUSH1 0x80 DUP4 ADD SWAP1 PUSH2 0x174F JUMP JUMPDEST SUB SWAP1 LOG2 STOP JUMPDEST PUSH1 0x1 SWAP1 PUSH1 0x20 DUP4 MLOAD SWAP4 ADD SWAP3 DUP2 DUP12 ADD SSTORE ADD PUSH2 0xCE8 JUMP JUMPDEST PUSH1 0x1 SWAP1 PUSH1 0x20 DUP5 MLOAD SWAP5 ADD SWAP4 DUP2 DUP5 ADD SSTORE ADD PUSH2 0xC95 JUMP JUMPDEST PUSH1 0x1 SWAP1 PUSH1 0x20 DUP5 MLOAD SWAP5 ADD SWAP4 DUP2 DUP5 ADD SSTORE ADD PUSH2 0xC44 JUMP JUMPDEST PUSH1 0x1 SWAP1 PUSH1 0x20 DUP5 MLOAD SWAP5 ADD SWAP4 DUP2 DUP5 ADD SSTORE ADD PUSH2 0xBF4 JUMP JUMPDEST DUP3 MLOAD PUSH1 0x1 PUSH1 0x1 PUSH1 0xA0 SHL SUB AND DUP2 DUP4 ADD SSTORE PUSH1 0x20 SWAP1 SWAP3 ADD SWAP2 PUSH1 0x1 ADD PUSH2 0xBA4 JUMP JUMPDEST RETURNDATASIZE DUP1 PUSH1 0x0 DUP4 RETURNDATACOPY PUSH2 0xDF9 DUP2 DUP4 PUSH2 0x165B JUMP JUMPDEST DUP2 ADD SWAP1 PUSH1 0x20 DUP2 DUP4 SUB SLT PUSH2 0x12F JUMPI DUP1 MLOAD SWAP1 PUSH8 0xFFFFFFFFFFFFFFFF DUP3 GT PUSH2 0x12F JUMPI ADD DUP2 PUSH1 0x1F DUP3 ADD SLT ISZERO PUSH2 0x12F JUMPI DUP1 MLOAD SWAP1 PUSH1 0x20 DUP1 PUSH2 0xE33 DUP5 PUSH2 0x16D5 JUMP JUMPDEST PUSH2 0xE40 PUSH1 0x40 MLOAD SWAP2 DUP3 PUSH2 0x165B JUMP JUMPDEST DUP5 DUP2 MSTORE ADD SWAP3 PUSH1 0x5 SHL DUP3 ADD ADD SWAP3 DUP4 GT PUSH2 0x12F JUMPI PUSH1 0x20 ADD SWAP1 JUMPDEST DUP3 DUP3 LT PUSH2 0xE65 JUMPI POP POP PUSH2 0xA46 JUMP JUMPDEST DUP2 MLOAD DUP2 MSTORE PUSH1 0x20 SWAP2 DUP3 ADD SWAP2 ADD PUSH2 0xE57 JUMP JUMPDEST PUSH4 0x4E487B71 PUSH1 0xE0 SHL PUSH1 0x0 MSTORE PUSH1 0x32 PUSH1 0x4 MSTORE PUSH1 0x24 PUSH1 0x0 REVERT JUMPDEST PUSH1 0x40 MLOAD PUSH3 0x461BCD PUSH1 0xE5 SHL DUP2 MSTORE PUSH1 0x20 PUSH1 0x4 DUP3 ADD MSTORE PUSH1 0x1D PUSH1 0x24 DUP3 ADD MSTORE PUSH32 0x496E73756666696369656E74206C656E646572206C6971756964697479000000 PUSH1 0x44 DUP3 ADD MSTORE PUSH1 0x64 SWAP1 REVERT JUMPDEST SWAP5 SWAP1 SWAP6 POP SWAP7 SWAP3 SWAP7 SWAP6 SWAP1 SWAP2 SWAP6 PUSH2 0x96F JUMP JUMPDEST PUSH2 0xEF8 SWAP1 PUSH1 0x20 RETURNDATASIZE PUSH1 0x20 GT PUSH2 0x440 JUMPI PUSH2 0x431 DUP2 DUP4 PUSH2 0x165B JUMP JUMPDEST POP DUP3 PUSH2 0x7B7 JUMP JUMPDEST PUSH1 0x40 MLOAD PUSH3 0x461BCD PUSH1 0xE5 SHL DUP2 MSTORE PUSH1 0x20 PUSH1 0x4 DUP3 ADD MSTORE PUSH1 0x22 PUSH1 0x24 DUP3 ADD MSTORE PUSH32 0x4C6F616E20616D6F756E74206D7573742062652067726561746572207468616E PUSH1 0x44 DUP3 ADD MSTORE PUSH2 0x203 PUSH1 0xF4 SHL PUSH1 0x64 DUP3 ADD MSTORE PUSH1 0x84 SWAP1 REVERT JUMPDEST CALLVALUE PUSH2 0x12F JUMPI PUSH1 0x40 CALLDATASIZE PUSH1 0x3 NOT ADD SLT PUSH2 0x12F JUMPI PUSH1 0x4 CALLDATALOAD PUSH1 0x0 MSTORE PUSH1 0x4 PUSH1 0x20 MSTORE PUSH1 0x40 PUSH1 0x0 KECCAK256 PUSH1 0xFF PUSH1 0xC DUP3 ADD SLOAD AND ISZERO PUSH2 0x138A JUMPI PUSH1 0x4 DUP2 ADD SLOAD PUSH1 0x1 PUSH1 0x1 PUSH1 0xA0 SHL SUB AND CALLER SUB PUSH2 0x1339 JUMPI PUSH1 0xB SLOAD PUSH1 0x40 MLOAD PUSH4 0x23B872DD PUSH1 0xE0 SHL DUP2 MSTORE CALLER PUSH1 0x4 DUP3 ADD MSTORE ADDRESS PUSH1 0x24 DUP1 DUP4 ADD SWAP2 SWAP1 SWAP2 MSTORE CALLDATALOAD PUSH1 0x44 DUP3 ADD MSTORE SWAP1 PUSH1 0x20 SWAP1 DUP3 SWAP1 PUSH1 0x64 SWAP1 DUP3 SWAP1 PUSH1 0x0 SWAP1 PUSH1 0x1 PUSH1 0x1 PUSH1 0xA0 SHL SUB AND GAS CALL DUP1 ISZERO PUSH2 0x447 JUMPI PUSH2 0x131A JUMPI JUMPDEST POP PUSH1 0x0 PUSH1 0x24 CALLDATALOAD JUMPDEST PUSH1 0x5 DUP4 ADD SLOAD DUP3 LT ISZERO PUSH2 0x1313 JUMPI PUSH8 0xDE0B6B3A7640000 PUSH2 0x1018 PUSH2 0x1007 DUP5 PUSH1 0x9 DUP8 ADD PUSH2 0x1627 JUMP JUMPDEST SWAP1 SLOAD PUSH1 0x1 DUP8 ADD SLOAD SWAP2 PUSH1 0x3 SHL SHR PUSH2 0x16A2 JUMP JUMPDEST DIV PUSH2 0x1026 DUP4 PUSH1 0x8 DUP7 ADD PUSH2 0x1627 JUMP JUMPDEST SWAP1 SLOAD SWAP1 PUSH1 0x3 SHL SHR PUSH2 0x1037 DUP2 DUP4 PUSH2 0x1695 JUMP JUMPDEST SWAP2 DUP3 DUP5 LT ISZERO PUSH2 0x1245 JUMPI SWAP2 PUSH2 0x105A PUSH2 0x1065 SWAP3 PUSH2 0x105F DUP4 PUSH2 0x105A DUP9 SWAP8 PUSH2 0x10D6 SWAP10 PUSH2 0x16A2 JUMP JUMPDEST PUSH2 0x16B5 JUMP JUMPDEST SWAP5 PUSH2 0x16A2 JUMP JUMPDEST PUSH1 0xB SLOAD SWAP1 SWAP4 SWAP1 PUSH1 0x20 SWAP1 PUSH1 0x1 PUSH1 0x1 PUSH1 0xA0 SHL SUB AND PUSH2 0x1084 DUP4 PUSH1 0x5 DUP10 ADD PUSH2 0x1627 JUMP JUMPDEST SWAP1 SLOAD PUSH1 0x3 SWAP2 SWAP1 SWAP2 SHL SHR PUSH1 0x1 PUSH1 0x1 PUSH1 0xA0 SHL SUB AND SWAP1 PUSH2 0x10A1 DUP8 DUP7 PUSH2 0x1695 JUMP JUMPDEST PUSH1 0x40 MLOAD PUSH4 0xA9059CBB PUSH1 0xE0 SHL DUP2 MSTORE PUSH1 0x1 PUSH1 0x1 PUSH1 0xA0 SHL SUB SWAP1 SWAP4 AND PUSH1 0x4 DUP5 ADD MSTORE PUSH1 0x24 DUP4 ADD MSTORE SWAP1 SWAP5 DUP6 SWAP2 SWAP1 DUP3 SWAP1 PUSH1 0x0 SWAP1 DUP3 SWAP1 PUSH1 0x44 DUP3 ADD SWAP1 JUMP JUMPDEST SUB SWAP3 GAS CALL SWAP2 DUP3 ISZERO PUSH2 0x447 JUMPI PUSH2 0x1131 SWAP4 PUSH2 0x10FF SWAP4 PUSH2 0x1226 JUMPI JUMPDEST POP PUSH2 0x1126 PUSH2 0x10FF DUP4 PUSH1 0x7 DUP10 ADD PUSH2 0x1627 JUMP JUMPDEST PUSH2 0x1112 DUP3 SWAP5 SWAP3 SLOAD SWAP3 DUP4 DUP4 PUSH1 0x3 SHL SHR PUSH2 0x172E JUMP JUMPDEST SWAP2 SWAP1 PUSH1 0x3 SHL SWAP2 DUP3 SHL SWAP2 PUSH1 0x0 NOT SWAP1 SHL NOT AND OR SWAP1 JUMP JUMPDEST SWAP1 SSTORE PUSH1 0x8 DUP6 ADD PUSH2 0x1627 JUMP JUMPDEST SWAP1 SSTORE JUMPDEST PUSH1 0x1 PUSH1 0x0 PUSH1 0x7 DUP4 ADD DUP1 SLOAD SWAP2 JUMPDEST DUP3 DUP2 LT PUSH2 0x11A9 JUMPI JUMPDEST POP POP POP DUP1 PUSH32 0xDC376ABD09229A842AC7D8BCADC9017651F1F1B8490750870CAE0ECD4AEDF674 SWAP3 PUSH1 0x80 SWAP3 PUSH2 0x1198 JUMPI JUMPDEST POP PUSH1 0x40 MLOAD SWAP1 PUSH1 0x4 CALLDATALOAD DUP3 MSTORE CALLER PUSH1 0x20 DUP4 ADD MSTORE PUSH1 0x24 CALLDATALOAD PUSH1 0x40 DUP4 ADD MSTORE ISZERO ISZERO PUSH1 0x60 DUP3 ADD MSTORE LOG1 STOP JUMPDEST PUSH1 0xC ADD DUP1 SLOAD PUSH1 0xFF NOT AND SWAP1 SSTORE DUP4 PUSH2 0x1176 JUMP JUMPDEST PUSH2 0x11B3 DUP2 DUP4 PUSH2 0x1627 JUMP JUMPDEST SWAP1 SLOAD PUSH1 0x3 SWAP2 DUP3 SHL SHR ISZERO SWAP1 DUP2 ISZERO SWAP2 PUSH2 0x120A JUMPI JUMPDEST POP PUSH2 0x11D8 JUMPI PUSH2 0x11D3 SWAP1 PUSH2 0x171F JUMP JUMPDEST PUSH2 0x1140 JUMP JUMPDEST POP POP POP POP PUSH1 0x80 PUSH32 0xDC376ABD09229A842AC7D8BCADC9017651F1F1B8490750870CAE0ECD4AEDF674 SWAP2 PUSH1 0x0 SWAP2 DUP2 SWAP4 PUSH2 0x1148 JUMP JUMPDEST SWAP1 POP PUSH2 0x1219 DUP3 PUSH1 0x8 DUP9 ADD PUSH2 0x1627 JUMP JUMPDEST SWAP1 SLOAD SWAP2 SHL SHR ISZERO ISZERO DUP7 PUSH2 0x11C5 JUMP JUMPDEST PUSH2 0x123E SWAP1 PUSH1 0x20 RETURNDATASIZE PUSH1 0x20 GT PUSH2 0x440 JUMPI PUSH2 0x431 DUP2 DUP4 PUSH2 0x165B JUMP JUMPDEST POP DUP7 PUSH2 0x10EE JUMP JUMPDEST SWAP4 SWAP2 SWAP3 DUP4 PUSH1 0x20 PUSH2 0x12A6 SWAP6 PUSH1 0x1 DUP1 PUSH1 0xA0 SHL SUB PUSH1 0xB SLOAD AND PUSH2 0x1267 DUP8 PUSH1 0x5 DUP13 ADD PUSH2 0x1627 JUMP JUMPDEST SWAP1 SLOAD PUSH1 0x40 MLOAD PUSH4 0xA9059CBB PUSH1 0xE0 SHL DUP2 MSTORE PUSH1 0x3 SWAP3 SWAP1 SWAP3 SHL SHR PUSH1 0x1 PUSH1 0x1 PUSH1 0xA0 SHL SUB AND PUSH1 0x4 DUP3 ADD MSTORE PUSH1 0x24 DUP2 ADD SWAP3 SWAP1 SWAP3 MSTORE SWAP1 SWAP7 DUP8 SWAP2 SWAP1 DUP3 SWAP1 PUSH1 0x0 SWAP1 DUP3 SWAP1 PUSH1 0x44 DUP3 ADD SWAP1 JUMP JUMPDEST SUB SWAP3 GAS CALL SWAP2 DUP3 ISZERO PUSH2 0x447 JUMPI PUSH2 0x12EE SWAP6 PUSH2 0x12C4 SWAP4 PUSH2 0x12F4 JUMPI JUMPDEST POP PUSH2 0x172E JUMP JUMPDEST SWAP4 PUSH2 0x12D5 PUSH2 0x10FF DUP5 PUSH1 0x7 DUP10 ADD PUSH2 0x1627 JUMP JUMPDEST SWAP1 SSTORE PUSH2 0x12E7 PUSH2 0x10FF DUP4 PUSH1 0x8 DUP9 ADD PUSH2 0x1627 JUMP JUMPDEST SWAP1 SSTORE PUSH2 0x171F JUMP JUMPDEST SWAP1 PUSH2 0xFE2 JUMP JUMPDEST PUSH2 0x130C SWAP1 PUSH1 0x20 RETURNDATASIZE PUSH1 0x20 GT PUSH2 0x440 JUMPI PUSH2 0x431 DUP2 DUP4 PUSH2 0x165B JUMP JUMPDEST POP DUP9 PUSH2 0x12BE JUMP JUMPDEST POP POP PUSH2 0x1134 JUMP JUMPDEST PUSH2 0x1332 SWAP1 PUSH1 0x20 RETURNDATASIZE PUSH1 0x20 GT PUSH2 0x440 JUMPI PUSH2 0x431 DUP2 DUP4 PUSH2 0x165B JUMP JUMPDEST POP DUP2 PUSH2 0xFDB JUMP JUMPDEST PUSH1 0x40 MLOAD PUSH3 0x461BCD PUSH1 0xE5 SHL DUP2 MSTORE PUSH1 0x20 PUSH1 0x4 DUP3 ADD MSTORE PUSH1 0x24 DUP1 DUP3 ADD MSTORE PUSH32 0x4F6E6C792074686520626F72726F7765722063616E2072657061792074686520 PUSH1 0x44 DUP3 ADD MSTORE PUSH4 0x3637B0B7 PUSH1 0xE1 SHL PUSH1 0x64 DUP3 ADD MSTORE PUSH1 0x84 SWAP1 REVERT JUMPDEST PUSH1 0x40 MLOAD PUSH3 0x461BCD PUSH1 0xE5 SHL DUP2 MSTORE PUSH1 0x20 PUSH1 0x4 DUP3 ADD MSTORE PUSH1 0x12 PUSH1 0x24 DUP3 ADD MSTORE PUSH18 0x4C6F616E206973206E6F7420616374697665 PUSH1 0x70 SHL PUSH1 0x44 DUP3 ADD MSTORE PUSH1 0x64 SWAP1 REVERT JUMPDEST CALLVALUE PUSH2 0x12F JUMPI PUSH1 0x0 CALLDATASIZE PUSH1 0x3 NOT ADD SLT PUSH2 0x12F JUMPI PUSH1 0x0 DUP1 PUSH1 0x7 SLOAD JUMPDEST DUP1 DUP4 LT PUSH2 0x13EE JUMPI PUSH1 0x20 DUP3 PUSH1 0x40 MLOAD SWAP1 DUP2 MSTORE RETURN JUMPDEST SWAP1 PUSH2 0x1429 PUSH2 0x142F SWAP2 PUSH2 0x13FF DUP6 PUSH2 0x15F0 JUMP JUMPDEST SWAP1 SLOAD PUSH1 0x3 SWAP2 DUP3 SHL SHR PUSH1 0x1 PUSH1 0x1 PUSH1 0xA0 SHL SUB AND PUSH1 0x0 SWAP1 DUP2 MSTORE PUSH1 0x20 SWAP2 SWAP1 SWAP2 MSTORE PUSH1 0x40 SWAP1 KECCAK256 PUSH1 0x2 ADD SLOAD SWAP1 PUSH2 0x1695 JUMP JUMPDEST SWAP3 PUSH2 0x171F JUMP JUMPDEST SWAP2 SWAP1 PUSH2 0x13DC JUMP JUMPDEST CALLVALUE PUSH2 0x12F JUMPI PUSH1 0x0 CALLDATASIZE PUSH1 0x3 NOT ADD SLT PUSH2 0x12F JUMPI PUSH1 0xD SLOAD PUSH1 0x40 MLOAD PUSH1 0x1 PUSH1 0x1 PUSH1 0xA0 SHL SUB SWAP1 SWAP2 AND DUP2 MSTORE PUSH1 0x20 SWAP1 RETURN JUMPDEST CALLVALUE PUSH2 0x12F JUMPI PUSH1 0x20 CALLDATASIZE PUSH1 0x3 NOT ADD SLT PUSH2 0x12F JUMPI PUSH1 0x4 CALLDATALOAD PUSH1 0x8 SLOAD DUP2 LT ISZERO PUSH2 0x12F JUMPI PUSH2 0x1488 PUSH1 0x20 SWAP2 PUSH2 0x15B9 JUMP JUMPDEST SWAP1 SLOAD PUSH1 0x40 MLOAD SWAP2 PUSH1 0x3 SHL SHR DUP2 MSTORE RETURN JUMPDEST CALLVALUE PUSH2 0x12F JUMPI PUSH1 0x20 CALLDATASIZE PUSH1 0x3 NOT ADD SLT PUSH2 0x12F JUMPI PUSH1 0x4 CALLDATALOAD PUSH1 0x9 SLOAD DUP2 LT ISZERO PUSH2 0x12F JUMPI PUSH1 0x20 SWAP1 PUSH1 0x9 PUSH1 0x0 MSTORE PUSH32 0x6E1540171B6C0C960B71A7020D9F60077F6AF931A8BBF590DA0223DACF75C7AF ADD SLOAD PUSH1 0x40 MLOAD SWAP1 DUP2 MSTORE RETURN JUMPDEST CALLVALUE PUSH2 0x12F JUMPI PUSH1 0x0 CALLDATASIZE PUSH1 0x3 NOT ADD SLT PUSH2 0x12F JUMPI PUSH1 0x20 PUSH1 0x2 SLOAD PUSH1 0x40 MLOAD SWAP1 DUP2 MSTORE RETURN JUMPDEST CALLVALUE PUSH2 0x12F JUMPI PUSH1 0x20 CALLDATASIZE PUSH1 0x3 NOT ADD SLT PUSH2 0x12F JUMPI PUSH1 0x1 PUSH1 0x1 PUSH1 0xA0 SHL SUB PUSH2 0x1526 PUSH2 0x15A3 JUMP JUMPDEST AND PUSH1 0x0 MSTORE PUSH1 0x3 PUSH1 0x20 MSTORE PUSH1 0x60 PUSH1 0x40 PUSH1 0x0 KECCAK256 DUP1 SLOAD SWAP1 PUSH1 0x2 PUSH1 0x1 DUP3 ADD SLOAD SWAP2 ADD SLOAD SWAP1 PUSH1 0x40 MLOAD SWAP3 DUP4 MSTORE PUSH1 0x20 DUP4 ADD MSTORE PUSH1 0x40 DUP3 ADD MSTORE RETURN JUMPDEST CALLVALUE PUSH2 0x12F JUMPI PUSH1 0x0 CALLDATASIZE PUSH1 0x3 NOT ADD SLT PUSH2 0x12F JUMPI PUSH1 0xC SLOAD PUSH1 0x40 MLOAD PUSH1 0x1 PUSH1 0x1 PUSH1 0xA0 SHL SUB SWAP1 SWAP2 AND DUP2 MSTORE PUSH1 0x20 SWAP1 RETURN JUMPDEST CALLVALUE PUSH2 0x12F JUMPI PUSH1 0x0 CALLDATASIZE PUSH1 0x3 NOT ADD SLT PUSH2 0x12F JUMPI PUSH1 0xB SLOAD PUSH1 0x1 PUSH1 0x1 PUSH1 0xA0 SHL SUB AND DUP2 MSTORE PUSH1 0x20 SWAP1 RETURN JUMPDEST PUSH1 0x4 CALLDATALOAD SWAP1 PUSH1 0x1 PUSH1 0x1 PUSH1 0xA0 SHL SUB DUP3 AND DUP3 SUB PUSH2 0x12F JUMPI JUMP JUMPDEST PUSH1 0x8 SLOAD DUP2 LT ISZERO PUSH2 0xE75 JUMPI PUSH1 0x8 PUSH1 0x0 MSTORE PUSH32 0xF3F7A9FE364FAAB93B216DA50A3214154F22A0A2B415B23A84C8169E8B636EE3 ADD SWAP1 PUSH1 0x0 SWAP1 JUMP JUMPDEST PUSH1 0x7 SLOAD DUP2 LT ISZERO PUSH2 0xE75 JUMPI PUSH1 0x7 PUSH1 0x0 MSTORE PUSH32 0xA66CC928B5EDB82AF9BD49922954155AB7B0942694BEA4CE44661D9A8736C688 ADD SWAP1 PUSH1 0x0 SWAP1 JUMP JUMPDEST DUP1 SLOAD DUP3 LT ISZERO PUSH2 0xE75 JUMPI PUSH1 0x0 MSTORE PUSH1 0x20 PUSH1 0x0 KECCAK256 ADD SWAP1 PUSH1 0x0 SWAP1 JUMP JUMPDEST PUSH1 0xE0 DUP2 ADD SWAP1 DUP2 LT PUSH8 0xFFFFFFFFFFFFFFFF DUP3 GT OR PUSH2 0x402 JUMPI PUSH1 0x40 MSTORE JUMP JUMPDEST SWAP1 PUSH1 0x1F DUP1 NOT SWAP2 ADD AND DUP2 ADD SWAP1 DUP2 LT PUSH8 0xFFFFFFFFFFFFFFFF DUP3 GT OR PUSH2 0x402 JUMPI PUSH1 0x40 MSTORE JUMP JUMPDEST SWAP1 DUP2 PUSH1 0x20 SWAP2 SUB SLT PUSH2 0x12F JUMPI MLOAD DUP1 ISZERO ISZERO DUP2 SUB PUSH2 0x12F JUMPI SWAP1 JUMP JUMPDEST SWAP2 SWAP1 DUP3 ADD DUP1 SWAP3 GT PUSH2 0x936 JUMPI JUMP JUMPDEST DUP2 DUP2 MUL SWAP3 SWAP2 DUP2 ISZERO SWAP2 DUP5 DIV EQ OR ISZERO PUSH2 0x936 JUMPI JUMP JUMPDEST DUP2 ISZERO PUSH2 0x16BF JUMPI DIV SWAP1 JUMP JUMPDEST PUSH4 0x4E487B71 PUSH1 0xE0 SHL PUSH1 0x0 MSTORE PUSH1 0x12 PUSH1 0x4 MSTORE PUSH1 0x24 PUSH1 0x0 REVERT JUMPDEST PUSH8 0xFFFFFFFFFFFFFFFF DUP2 GT PUSH2 0x402 JUMPI PUSH1 0x5 SHL PUSH1 0x20 ADD SWAP1 JUMP JUMPDEST SWAP1 PUSH2 0x16F7 DUP3 PUSH2 0x16D5 JUMP JUMPDEST PUSH2 0x1704 PUSH1 0x40 MLOAD SWAP2 DUP3 PUSH2 0x165B JUMP JUMPDEST DUP3 DUP2 MSTORE DUP1 SWAP3 PUSH2 0x1715 PUSH1 0x1F NOT SWAP2 PUSH2 0x16D5 JUMP JUMPDEST ADD SWAP1 PUSH1 0x20 CALLDATASIZE SWAP2 ADD CALLDATACOPY JUMP JUMPDEST PUSH1 0x0 NOT DUP2 EQ PUSH2 0x936 JUMPI PUSH1 0x1 ADD SWAP1 JUMP JUMPDEST SWAP2 SWAP1 DUP3 SUB SWAP2 DUP3 GT PUSH2 0x936 JUMPI JUMP JUMPDEST DUP1 MLOAD DUP3 LT ISZERO PUSH2 0xE75 JUMPI PUSH1 0x20 SWAP2 PUSH1 0x5 SHL ADD ADD SWAP1 JUMP JUMPDEST SWAP1 DUP2 MLOAD DUP1 DUP3 MSTORE PUSH1 0x20 DUP1 DUP1 SWAP4 ADD SWAP4 ADD SWAP2 PUSH1 0x0 JUMPDEST DUP3 DUP2 LT PUSH2 0x176F JUMPI POP POP POP POP SWAP1 JUMP JUMPDEST DUP4 MLOAD PUSH1 0x1 PUSH1 0x1 PUSH1 0xA0 SHL SUB AND DUP6 MSTORE SWAP4 DUP2 ADD SWAP4 SWAP3 DUP2 ADD SWAP3 PUSH1 0x1 ADD PUSH2 0x1761 JUMP JUMPDEST SWAP1 SWAP2 DUP3 DUP2 LT PUSH2 0x179A JUMPI POP POP POP JUMP JUMPDEST PUSH1 0x0 SWAP2 DUP3 MSTORE PUSH1 0x20 DUP3 KECCAK256 SWAP3 DUP4 ADD SWAP3 ADD JUMPDEST DUP3 DUP2 LT PUSH2 0x17B5 JUMPI POP POP POP JUMP JUMPDEST DUP2 DUP2 SSTORE PUSH1 0x1 ADD PUSH2 0x17A9 JUMP INVALID LOG2 PUSH5 0x6970667358 0x22 SLT KECCAK256 NOT 0xAF 0xF6 0xE6 DUP8 0xEF PUSH14 0x43B17DD711F7F935333C9609A31C 0xD5 PUSH32 0x8F42E8F0C5F5797D4764736F6C63430008140033000000000000000000000000 "},"methodIdentifiers":{"assetPrice(address)":"b883b058","availableLiquidity()":"74375359","deposit(address,uint256,uint256,uint256)":"ce88b439","depositsList(uint256)":"63117aee","exchangeRate()":"3ba0b9a9","getPrice(address)":"41976e09","lenders(address)":"28fd10d7","lendersList(uint256)":"c7c92222","loan(uint256,uint256,uint256)":"864a83b2","loanCount()":"ce63094d","loans(bytes32)":"c4a90815","loansList(uint256)":"3fc811fd","owner()":"8da5cb5b","payouts(bytes32,uint256)":"80f2122c","poolBalance()":"96365d44","setPrice(address,address,bytes32,uint256,int256,bytes32,bytes32,uint256,bytes32,bytes32,uint8)":"91b62030","storkVerifier()":"e545a6ad","uniswapRouter()":"735de9f7","usdcToken()":"11eac855","wbtctoken()":"164ba87e"}}}}}