{
  "_format": "hh-sol-artifact-1",
  "contractName": "LendingPool",
  "sourceName": "contracts/Lending.sol",
  "abi": [
    {
      "inputs": [
        {
          "internalType": "address",
          "name": "usdc",
          "type": "address"
        },
        {
          "internalType": "address",
          "name": "wbtc",
          "type": "address"
        },
        {
          "internalType": "address",
          "name": "router",
          "type": "address"
        }
      ],
      "stateMutability": "nonpayable",
      "type": "constructor"
    },
    {
      "anonymous": false,
      "inputs": [
        {
          "indexed": false,
          "internalType": "bytes32",
          "name": "id",
          "type": "bytes32"
        },
        {
          "indexed": true,
          "internalType": "address",
          "name": "lender",
          "type": "address"
        },
        {
          "indexed": false,
          "internalType": "uint256",
          "name": "amount",
          "type": "uint256"
        },
        {
          "indexed": false,
          "internalType": "uint256",
          "name": "duration",
          "type": "uint256"
        },
        {
          "indexed": false,
          "internalType": "uint256",
          "name": "interest",
          "type": "uint256"
        },
        {
          "indexed": false,
          "internalType": "uint256",
          "name": "depositBalance",
          "type": "uint256"
        }
      ],
      "name": "DepositEvent",
      "type": "event"
    },
    {
      "anonymous": false,
      "inputs": [
        {
          "indexed": false,
          "internalType": "bytes32",
          "name": "id",
          "type": "bytes32"
        },
        {
          "indexed": false,
          "internalType": "uint256",
          "name": "amount",
          "type": "uint256"
        },
        {
          "indexed": false,
          "internalType": "uint256",
          "name": "collateral",
          "type": "uint256"
        },
        {
          "indexed": true,
          "internalType": "address",
          "name": "borrower",
          "type": "address"
        },
        {
          "indexed": false,
          "internalType": "address[]",
          "name": "lenders",
          "type": "address[]"
        }
      ],
      "name": "LoanCreated",
      "type": "event"
    },
    {
      "anonymous": false,
      "inputs": [
        {
          "indexed": false,
          "internalType": "bytes32",
          "name": "loanId",
          "type": "bytes32"
        },
        {
          "indexed": false,
          "internalType": "address",
          "name": "borrower",
          "type": "address"
        },
        {
          "indexed": false,
          "internalType": "uint256",
          "name": "amount",
          "type": "uint256"
        },
        {
          "indexed": false,
          "internalType": "bool",
          "name": "fullyRepaid",
          "type": "bool"
        }
      ],
      "name": "Payout",
      "type": "event"
    },
    {
      "inputs": [
        {
          "internalType": "address",
          "name": "",
          "type": "address"
        }
      ],
      "name": "assetPrice",
      "outputs": [
        {
          "internalType": "uint256",
          "name": "",
          "type": "uint256"
        }
      ],
      "stateMutability": "view",
      "type": "function"
    },
    {
      "inputs": [],
      "name": "availableLiquidity",
      "outputs": [
        {
          "internalType": "uint256",
          "name": "",
          "type": "uint256"
        }
      ],
      "stateMutability": "view",
      "type": "function"
    },
    {
      "inputs": [
        {
          "internalType": "address",
          "name": "asset",
          "type": "address"
        },
        {
          "internalType": "uint256",
          "name": "amount",
          "type": "uint256"
        },
        {
          "internalType": "uint256",
          "name": "interest",
          "type": "uint256"
        },
        {
          "internalType": "uint256",
          "name": "duration",
          "type": "uint256"
        }
      ],
      "name": "deposit",
      "outputs": [
        {
          "components": [
            {
              "internalType": "bytes32",
              "name": "id",
              "type": "bytes32"
            },
            {
              "internalType": "address",
              "name": "lender",
              "type": "address"
            },
            {
              "internalType": "uint256",
              "name": "amount",
              "type": "uint256"
            },
            {
              "internalType": "uint256",
              "name": "duration",
              "type": "uint256"
            },
            {
              "internalType": "uint256",
              "name": "interest",
              "type": "uint256"
            },
            {
              "internalType": "uint256",
              "name": "depositBalance",
              "type": "uint256"
            },
            {
              "internalType": "uint256",
              "name": "receieveAmount",
              "type": "uint256"
            }
          ],
          "internalType": "struct LendingPool.Deposit",
          "name": "",
          "type": "tuple"
        }
      ],
      "stateMutability": "nonpayable",
      "type": "function"
    },
    {
      "inputs": [
        {
          "internalType": "uint256",
          "name": "",
          "type": "uint256"
        }
      ],
      "name": "depositsList",
      "outputs": [
        {
          "internalType": "bytes32",
          "name": "",
          "type": "bytes32"
        }
      ],
      "stateMutability": "view",
      "type": "function"
    },
    {
      "inputs": [],
      "name": "exchangeRate",
      "outputs": [
        {
          "internalType": "uint256",
          "name": "",
          "type": "uint256"
        }
      ],
      "stateMutability": "view",
      "type": "function"
    },
    {
      "inputs": [
        {
          "internalType": "address",
          "name": "asset",
          "type": "address"
        }
      ],
      "name": "getPrice",
      "outputs": [
        {
          "internalType": "uint256",
          "name": "",
          "type": "uint256"
        }
      ],
      "stateMutability": "view",
      "type": "function"
    },
    {
      "inputs": [
        {
          "internalType": "address",
          "name": "",
          "type": "address"
        }
      ],
      "name": "lenders",
      "outputs": [
        {
          "internalType": "uint256",
          "name": "deposit",
          "type": "uint256"
        },
        {
          "internalType": "uint256",
          "name": "totalContributed",
          "type": "uint256"
        },
        {
          "internalType": "uint256",
          "name": "remainingDeposit",
          "type": "uint256"
        }
      ],
      "stateMutability": "view",
      "type": "function"
    },
    {
      "inputs": [
        {
          "internalType": "uint256",
          "name": "",
          "type": "uint256"
        }
      ],
      "name": "lendersList",
      "outputs": [
        {
          "internalType": "address",
          "name": "",
          "type": "address"
        }
      ],
      "stateMutability": "view",
      "type": "function"
    },
    {
      "inputs": [
        {
          "internalType": "uint256",
          "name": "amount",
          "type": "uint256"
        },
        {
          "internalType": "uint256",
          "name": "duration",
          "type": "uint256"
        },
        {
          "internalType": "uint256",
          "name": "interestRate",
          "type": "uint256"
        }
      ],
      "name": "loan",
      "outputs": [],
      "stateMutability": "nonpayable",
      "type": "function"
    },
    {
      "inputs": [],
      "name": "loanCount",
      "outputs": [
        {
          "internalType": "uint256",
          "name": "",
          "type": "uint256"
        }
      ],
      "stateMutability": "view",
      "type": "function"
    },
    {
      "inputs": [
        {
          "internalType": "bytes32",
          "name": "",
          "type": "bytes32"
        }
      ],
      "name": "loans",
      "outputs": [
        {
          "internalType": "bytes32",
          "name": "id",
          "type": "bytes32"
        },
        {
          "internalType": "uint256",
          "name": "amount",
          "type": "uint256"
        },
        {
          "internalType": "uint256",
          "name": "collateral",
          "type": "uint256"
        },
        {
          "internalType": "uint256",
          "name": "interest",
          "type": "uint256"
        },
        {
          "internalType": "address",
          "name": "borrower",
          "type": "address"
        },
        {
          "internalType": "uint256",
          "name": "remainingCollateral",
          "type": "uint256"
        },
        {
          "internalType": "uint256",
          "name": "remainingAsset",
          "type": "uint256"
        },
        {
          "internalType": "bool",
          "name": "isActive",
          "type": "bool"
        },
        {
          "internalType": "uint256",
          "name": "duration",
          "type": "uint256"
        }
      ],
      "stateMutability": "view",
      "type": "function"
    },
    {
      "inputs": [
        {
          "internalType": "uint256",
          "name": "",
          "type": "uint256"
        }
      ],
      "name": "loansList",
      "outputs": [
        {
          "internalType": "bytes32",
          "name": "",
          "type": "bytes32"
        }
      ],
      "stateMutability": "view",
      "type": "function"
    },
    {
      "inputs": [],
      "name": "owner",
      "outputs": [
        {
          "internalType": "address",
          "name": "",
          "type": "address"
        }
      ],
      "stateMutability": "view",
      "type": "function"
    },
    {
      "inputs": [
        {
          "internalType": "bytes32",
          "name": "loanId",
          "type": "bytes32"
        },
        {
          "internalType": "uint256",
          "name": "usdcAmount",
          "type": "uint256"
        }
      ],
      "name": "payouts",
      "outputs": [],
      "stateMutability": "nonpayable",
      "type": "function"
    },
    {
      "inputs": [],
      "name": "poolBalance",
      "outputs": [
        {
          "internalType": "uint256",
          "name": "",
          "type": "uint256"
        }
      ],
      "stateMutability": "view",
      "type": "function"
    },
    {
      "inputs": [
        {
          "internalType": "address",
          "name": "asset",
          "type": "address"
        },
        {
          "internalType": "address",
          "name": "storkPubKey",
          "type": "address"
        },
        {
          "internalType": "bytes32",
          "name": "id",
          "type": "bytes32"
        },
        {
          "internalType": "uint256",
          "name": "recvTime",
          "type": "uint256"
        },
        {
          "internalType": "int256",
          "name": "quantizedValue",
          "type": "int256"
        },
        {
          "internalType": "bytes32",
          "name": "publisherMerkleRoot",
          "type": "bytes32"
        },
        {
          "internalType": "bytes32",
          "name": "valueComputeAlgHash",
          "type": "bytes32"
        },
        {
          "internalType": "uint256",
          "name": "value",
          "type": "uint256"
        },
        {
          "internalType": "bytes32",
          "name": "r",
          "type": "bytes32"
        },
        {
          "internalType": "bytes32",
          "name": "s",
          "type": "bytes32"
        },
        {
          "internalType": "uint8",
          "name": "v",
          "type": "uint8"
        }
      ],
      "name": "setPrice",
      "outputs": [],
      "stateMutability": "nonpayable",
      "type": "function"
    },
    {
      "inputs": [],
      "name": "storkVerifier",
      "outputs": [
        {
          "internalType": "address",
          "name": "",
          "type": "address"
        }
      ],
      "stateMutability": "view",
      "type": "function"
    },
    {
      "inputs": [],
      "name": "uniswapRouter",
      "outputs": [
        {
          "internalType": "address",
          "name": "",
          "type": "address"
        }
      ],
      "stateMutability": "view",
      "type": "function"
    },
    {
      "inputs": [],
      "name": "usdcToken",
      "outputs": [
        {
          "internalType": "address",
          "name": "",
          "type": "address"
        }
      ],
      "stateMutability": "view",
      "type": "function"
    },
    {
      "inputs": [],
      "name": "wbtctoken",
      "outputs": [
        {
          "internalType": "address",
          "name": "",
          "type": "address"
        }
      ],
      "stateMutability": "view",
      "type": "function"
    },
    {
      "stateMutability": "payable",
      "type": "receive"
    }
  ],
  "bytecode": "0x608034620000d457601f6200195238819003918201601f19168301916001600160401b03831184841017620000d957808492606094604052833981010312620000d4576200004d81620000ef565b906200006a60406200006260208401620000ef565b9201620000ef565b60018060a01b03199273acc0a0cf13571d30b4b8637996f5d6d774d4fd628460005416176000553384600a541617600a5560018060a01b03928380921685600b541617600b551683600c541617600c551690600d541617600d5560405161184d9081620001058239f35b600080fd5b634e487b7160e01b600052604160045260246000fd5b51906001600160a01b0382168203620000d45756fe608080604052600436101561001d575b50361561001b57600080fd5b005b60003560e01c90816311eac855146115d657508063164ba87e146115ad57806328fd10d71461155c5780633ba0b9a91461153e5780633fc811fd146114ed57806341976e091461054457806363117aee146114b6578063735de9f71461148d578063743753591461141b57806380f2122c14610fa6578063864a83b2146107195780638da5cb5b146106f057806391b620301461059c57806396365d441461057e578063b883b05814610544578063c4a90815146104b3578063c7c9222214610471578063ce63094d14610453578063ce88b439146101345763e545a6ad14610106573861000f565b3461012f57600036600319011261012f576000546040516001600160a01b039091168152602090f35b600080fd5b3461012f57608036600319011261012f5761014d6115fa565b600060c060405161015d81611696565b82815260208082018490526040808301859052606083018590526080830185905260a0830185905292909101929092526001600160a01b03928316600090815260058352600b5491516323b872dd60e01b81523360048201523060248083019190915235604482015293849260649284929091165af1801561044757610418575b506040513360601b6bffffffffffffffffffffffff1916602082019081524260348301529061021a81605481015b03601f1981018352826116b2565b519020336000526003602052604060002061023860243582546116ec565b90556102486024356001546116ec565b80600155610268606461025f6044356024356116f9565b046024356116ec565b6040519161027583611696565b83835233602084015260243560408401526064356060840152604435608084015260a083015260c08201526040516060810181811067ffffffffffffffff821117610402576040526024358152600260208201600081526040830190602435825233600052600360205260406000209351845551600184015551910155600854600160401b8110156104025761032c610315826001869401600855611610565b819391549060031b91821b91600019901b19161790565b905560075491600160401b8310156104025761035083600160e09501600755611647565b81549060031b9033821b9160018060a01b03901b191617905560015460405191825260243560208301526064356040830152604435606083015260808201527fa98e9660b4ea7a3bbe85c8cf362cbb97a6a44321ab6390e63c9427153d55b0e160a03392a260c0604051918051835260018060a01b03602082015116602084015260408101516040840152606081015160608401526080810151608084015260a081015160a0840152015160c0820152f35b634e487b7160e01b600052604160045260246000fd5b6104399060203d602011610440575b61043181836116b2565b8101906116d4565b50806101de565b503d610427565b6040513d6000823e3d90fd5b3461012f57600036600319011261012f576020600654604051908152f35b3461012f57602036600319011261012f5760043560075481101561012f5761049a602091611647565b905460405160039290921b1c6001600160a01b03168152f35b3461012f57602036600319011261012f57600435600052600460205261012060406000208054906001810154906002810154600382015460018060a01b03600484015416600a84015491600b85015493600d60ff600c8801541696015496604051988952602089015260408801526060870152608086015260a085015260c0840152151560e0830152610100820152f35b3461012f57602036600319011261012f576001600160a01b036105656115fa565b1660005260056020526020604060002054604051908152f35b3461012f57600036600319011261012f576020600154604051908152f35b3461012f5761016036600319011261012f576105b66115fa565b6001600160a01b03602435818116929083900361012f5760e43592610144803560ff811680910361012f5784600a541633036106a1576020918560005416936000604051958694859363a61dd89960e01b8552600485015260443560248501526064356044850152608435606485015260a435608485015260c43560a48501528a60c4850152610104803560e4860152610124908135908601528401525af190811561044757600091610683575b5061066b57005b82600255166000526005602052604060002055600080f35b61069b915060203d81116104405761043181836116b2565b84610664565b60405162461bcd60e51b815260206004820152602160248201527f4f6e6c79206f776e65722063616e2063616c6c20746869732066756e6374696f6044820152603760f91b6064820152608490fd5b3461012f57600036600319011261012f57600a546040516001600160a01b039091168152602090f35b3461012f57606036600319011261012f5760043515610f565760243515610f0757601460043502600435810460140361093e576064810460021b6064820481046004146064830415171561093e5761077490606483046116ec565b600b546040516323b872dd60e01b8152336004820152306024820152606480850460448301529293929091602091839182906000906001600160a01b03165af1801561044757610ee8575b50600754916107cd83611744565b926107d781611744565b6107e082611744565b946107f36107ed84611744565b93611744565b6000936000955b600754871015610ed85760043586101561096b5761081787611647565b9790549760018060a01b03898260031b1c1660005260036020528a6002604060002001548061085f575b5050506108549192939495969750611776565b9594939291906107fa565b6108aa846108a494938d6108a4838e9f9a9b9c9d9e8f82986108838e600435611785565b8111610954579a8b998a965b60038d901b1c6001600160a01b031692611792565b52611792565b5260646108b9604435846116f9565b046108c48488611792565b52670de0b6b3a764000093828581020485148315171561093e5782610905916108f56108549760043590840261170c565b6108ff878c611792565b526116ec565b9960018060a01b039160031b1c16600052600360205261092e6002604060002001918254611785565b9055879695949392918a8c610841565b634e487b7160e01b600052601160045260246000fd5b506109618d600435611785565b9a8b998a9661088f565b94909550969296959091955b60043511610e93576040519081606081011067ffffffffffffffff60608401111761040257606082016040526002825260208201604036823760018060a01b03600b541690835115610e7d575260018060a01b03600c5416825160011015610e7d576040830152600d546001600160a01b03169142600281011061093e57610a3092606460008094604051968795869485936338ed173960e01b855204600484015283602484015260a0604484015260a48301906117a6565b30606483015260024201608483015203925af1801561044757610df1575b506040513360601b6bffffffffffffffffffffffff19166020820190815242603483015290610a80816054810161020c565b51902093610a90426024356116ec565b9260405197886101c081011067ffffffffffffffff6101c08b011117610402576101c0890160405286895260043560208a01528560408a015260443560608a01523360808a01528760a08a015260c089015260e088015261010087015261012086015281610140860152600061016086015260016101808601526101a08501528160005260046020526040600020845181556020850151600182015560408501516002820155606085015160038201556004810160018060a01b036080870151166bffffffffffffffffffffffff60a01b82541617905560a085015180519067ffffffffffffffff821161040257600160401b82116104025760206005840191610b9f848454818655856117e3565b0190600052602060002060005b838110610dd4575050505060c085015180519067ffffffffffffffff821161040257600160401b82116104025760206006840191610bef848454818655856117e3565b0190600052602060002060005b838110610dc0575050505060e085015180519067ffffffffffffffff821161040257600160401b82116104025760206007840191610c3f848454818655856117e3565b0190600052602060002060005b838110610dac575050505061010085015180519067ffffffffffffffff821161040257600160401b82116104025760206008840191610c90848454818655856117e3565b0190600052602060002060005b838110610d985750505050600981019461012081015180519067ffffffffffffffff821161040257600160401b821161040257602090610ce2838a54818c558b6117e3565b019660005260206000209660005b828110610d8457877fe95aad1ea29bd64c71ab2803a305028e9ea541d5edd9b3b31a848ea73501656b888888600d6101a08a610140810151600a850155610160810151600b850155600c8401610180820151151560ff801983541691161790550151910155604051918252600435602083015260408201526080606082015280610d7f339460808301906117a6565b0390a2005b60019060208351930192818b015501610cf0565b600190602084519401938184015501610c9d565b600190602084519401938184015501610c4c565b600190602084519401938184015501610bfc565b82516001600160a01b031681830155602090920191600101610bac565b3d806000833e610e0181836116b2565b81019060208183031261012f5780519067ffffffffffffffff821161012f570181601f8201121561012f57805190602080610e3b8461172c565b610e4860405191826116b2565b848152019260051b82010192831161012f57602001905b828210610e6d575050610a4e565b8151815260209182019101610e5f565b634e487b7160e01b600052603260045260246000fd5b60405162461bcd60e51b815260206004820152601d60248201527f496e73756666696369656e74206c656e646572206c69717569646974790000006044820152606490fd5b9490955096929695909195610977565b610f009060203d6020116104405761043181836116b2565b50826107bf565b60405162461bcd60e51b815260206004820152602160248201527f4475726174696f6e2073686f756c642062652067726561746572207468616e206044820152600360fc1b6064820152608490fd5b60405162461bcd60e51b815260206004820152602260248201527f4c6f616e20616d6f756e74206d7573742062652067726561746572207468616e604482015261020360f41b6064820152608490fd5b3461012f57604036600319011261012f576004356000526004602052604060002060ff600c82015416156113e15760048101546001600160a01b0316330361139057600b546040516323b872dd60e01b81523360048201523060248083019190915235604482015290602090829060649082906000906001600160a01b03165af1801561044757611371575b5060006024355b600583015482101561136a57670de0b6b3a764000061106f61105e846009870161167e565b905460018701549160031b1c6116f9565b0461107d836008860161167e565b90549060031b1c61108e81836116ec565b918284101561129c57916110b16110bc926110b6836110b1889761112d996116f9565b61170c565b946116f9565b600b549093906020906001600160a01b03166110db836005890161167e565b905460039190911b1c6001600160a01b0316906110f887866116ec565b60405163a9059cbb60e01b81526001600160a01b03909316600484015260248301529094859190829060009082906044820190565b03925af191821561044757611188936111569361127d575b5061117d611156836007890161167e565b6111698294925492838360031b1c611785565b919060031b91821b91600019901b19161790565b90556008850161167e565b90555b60016000600783018054915b828110611200575b505050807fdc376abd09229a842ac7d8bcadc9017651f1f1b8490750870cae0ecd4aedf674926080926111ef575b50604051906004358252336020830152602435604083015215156060820152a1005b600c01805460ff19169055836111cd565b61120a818361167e565b9054600391821b1c1590811591611261575b5061122f5761122a90611776565b611197565b5050505060807fdc376abd09229a842ac7d8bcadc9017651f1f1b8490750870cae0ecd4aedf67491600091819361119f565b9050611270826008880161167e565b9054911b1c15158661121c565b6112959060203d6020116104405761043181836116b2565b5086611145565b9391928360206112fd9560018060a01b03600b54166112be8760058c0161167e565b905460405163a9059cbb60e01b815260039290921b1c6001600160a01b0316600482015260248101929092529096879190829060009082906044820190565b03925af1918215610447576113459561131b9361134b575b50611785565b9361132c611156846007890161167e565b905561133e611156836008880161167e565b9055611776565b90611039565b6113639060203d6020116104405761043181836116b2565b5088611315565b505061118b565b6113899060203d6020116104405761043181836116b2565b5081611032565b60405162461bcd60e51b8152602060048201526024808201527f4f6e6c792074686520626f72726f7765722063616e20726570617920746865206044820152633637b0b760e11b6064820152608490fd5b60405162461bcd60e51b81526020600482015260126024820152714c6f616e206973206e6f742061637469766560701b6044820152606490fd5b3461012f57600036600319011261012f576000806007545b80831061144557602082604051908152f35b906114806114869161145685611647565b9054600391821b1c6001600160a01b031660009081526020919091526040902060020154906116ec565b92611776565b9190611433565b3461012f57600036600319011261012f57600d546040516001600160a01b039091168152602090f35b3461012f57602036600319011261012f5760043560085481101561012f576114df602091611610565b90546040519160031b1c8152f35b3461012f57602036600319011261012f5760043560095481101561012f5760209060096000527f6e1540171b6c0c960b71a7020d9f60077f6af931a8bbf590da0223dacf75c7af0154604051908152f35b3461012f57600036600319011261012f576020600254604051908152f35b3461012f57602036600319011261012f576001600160a01b0361157d6115fa565b16600052600360205260606040600020805490600260018201549101549060405192835260208301526040820152f35b3461012f57600036600319011261012f57600c546040516001600160a01b039091168152602090f35b3461012f57600036600319011261012f57600b546001600160a01b03168152602090f35b600435906001600160a01b038216820361012f57565b600854811015610e7d5760086000527ff3f7a9fe364faab93b216da50a3214154f22a0a2b415b23a84c8169e8b636ee30190600090565b600754811015610e7d5760076000527fa66cc928b5edb82af9bd49922954155ab7b0942694bea4ce44661d9a8736c6880190600090565b8054821015610e7d5760005260206000200190600090565b60e0810190811067ffffffffffffffff82111761040257604052565b90601f8019910116810190811067ffffffffffffffff82111761040257604052565b9081602091031261012f5751801515810361012f5790565b9190820180921161093e57565b8181029291811591840414171561093e57565b8115611716570490565b634e487b7160e01b600052601260045260246000fd5b67ffffffffffffffff81116104025760051b60200190565b9061174e8261172c565b61175b60405191826116b2565b828152809261176c601f199161172c565b0190602036910137565b600019811461093e5760010190565b9190820391821161093e57565b8051821015610e7d5760209160051b010190565b90815180825260208080930193019160005b8281106117c6575050505090565b83516001600160a01b0316855293810193928101926001016117b8565b90918281106117f157505050565b60009182526020822092830192015b82811061180c57505050565b81815560010161180056fea2646970667358221220929cbe0f42fe8d7f849cdfe6fc2e39d646e86c27fc02b8a580c0b5852c58be7c64736f6c63430008140033",
  "linkReferences": {},
  "deployedLinkReferences": {}
}