{
  "_format": "hh-sol-artifact-1",
  "contractName": "MockFactory",
  "sourceName": "contracts/MockFactory.sol",
  "abi": [
    {
      "inputs": [
        {
          "internalType": "address",
          "name": "tokenA",
          "type": "address"
        },
        {
          "internalType": "address",
          "name": "tokenB",
          "type": "address"
        }
      ],
      "name": "createPair",
      "outputs": [
        {
          "internalType": "address",
          "name": "pair",
          "type": "address"
        }
      ],
      "stateMutability": "nonpayable",
      "type": "function"
    },
    {
      "inputs": [
        {
          "internalType": "address",
          "name": "",
          "type": "address"
        },
        {
          "internalType": "address",
          "name": "",
          "type": "address"
        }
      ],
      "name": "getPair",
      "outputs": [
        {
          "internalType": "address",
          "name": "",
          "type": "address"
        }
      ],
      "stateMutability": "view",
      "type": "function"
    }
  ],
  "bytecode": "0x60808060405234610016576105c6908161001c8239f35b600080fdfe60806040818152600436101561001457600080fd5b600091823560e01c908163c9c6539614610085575063e6a439051461003857600080fd5b34610081578060031936011261008157602091816100546101ed565b9161005d610208565b6001600160a01b039384168252818652828220908416825285522054915191168152f35b5080fd5b83833461008157806003193601126100815761009f6101ed565b6001600160a01b03939084806100b3610208565b169116918183146101b55750818452602094848652838520828652865280848620541661017b5783516103728082019082821067ffffffffffffffff831117610167578691839161021f8339868152858a82015203019086f0801561015d57908491169485928482528188528282209082528752818120936bffffffffffffffffffffffff60a01b9484868254161790558188528282209082528752209182541617905551908152f35b84513d87823e3d90fd5b634e487b7160e01b88526041600452602488fd5b835162461bcd60e51b81526004810187905260136024820152725061697220616c72656164792065786973747360681b6044820152606490fd5b62461bcd60e51b81526020600482015260136024820152724964656e746963616c2061646472657373657360681b6044820152606490fd5b600435906001600160a01b038216820361020357565b600080fd5b602435906001600160a01b03821682036102035756fe60803461008d57601f61037238819003918201601f19168301916001600160401b0383118484101761009257808492604094855283398101031261008d57610052602061004b836100a8565b92016100a8565b600080546001600160a01b039384166001600160a01b031991821617909155600180549290931691161790556040516102b590816100bd8239f35b600080fd5b634e487b7160e01b600052604160045260246000fd5b51906001600160a01b038216820361008d5756fe60806040818152600436101561001457600080fd5b600091823560e01c9081630dfe1681146101e357508063443cb4bc146101c55780635a76f25e146101a75780639cd441da146100845763d21220a71461005957600080fd5b3461008057816003193601126100805760015490516001600160a01b039091168152602090f35b5080fd5b5034610080578060031936011261008057815481516323b872dd60e01b8082523360048084019190915230602480850191909152903560448401819052949035936020936001600160a01b03918590829060649082908c9087165af1801561019d5790859291610180575b50600154835194855233600486015230602486015260448501879052849160649183918b91165af1908115610177575091610143949161013893610149575b505060025461025c565b60025560035461025c565b60035580f35b8161016892903d10610170575b6101608183610207565b81019061023f565b50388061012e565b503d610156565b513d87823e3d90fd5b61019690833d8511610170576101608183610207565b50386100ef565b83513d8a823e3d90fd5b50346100805781600319360112610080576020906003549051908152f35b50346100805781600319360112610080576020906002549051908152f35b83903461008057816003193601126100805790546001600160a01b03168152602090f35b90601f8019910116810190811067ffffffffffffffff82111761022957604052565b634e487b7160e01b600052604160045260246000fd5b90816020910312610257575180151581036102575790565b600080fd5b9190820180921161026957565b634e487b7160e01b600052601160045260246000fdfea2646970667358221220037a9390c05ac588e734bfd6ca8458a8a866e85844ea6b0cfebc64ad85ae8e4664736f6c63430008140033a264697066735822122071b2555abee08c6d4c5a3ce38ef897b6bdd3ae62a58e1b82d20ff498eacebea164736f6c63430008140033",
  "linkReferences": {},
  "deployedLinkReferences": {}
}