{
  "_format": "hh-sol-artifact-1",
  "contractName": "MockRouter",
  "sourceName": "contracts/MockUniswapRouter.sol",
  "abi": [
    {
      "inputs": [
        {
          "internalType": "address",
          "name": "_factory",
          "type": "address"
        }
      ],
      "stateMutability": "nonpayable",
      "type": "constructor"
    },
    {
      "inputs": [
        {
          "internalType": "address",
          "name": "tokenA",
          "type": "address"
        },
        {
          "internalType": "address",
          "name": "tokenB",
          "type": "address"
        },
        {
          "internalType": "uint256",
          "name": "amountADesired",
          "type": "uint256"
        },
        {
          "internalType": "uint256",
          "name": "amountBDesired",
          "type": "uint256"
        }
      ],
      "name": "addLiquidity",
      "outputs": [],
      "stateMutability": "nonpayable",
      "type": "function"
    },
    {
      "inputs": [],
      "name": "factory",
      "outputs": [
        {
          "internalType": "address",
          "name": "",
          "type": "address"
        }
      ],
      "stateMutability": "view",
      "type": "function"
    }
  ],
  "bytecode": "0x60803461007457601f6103e638819003918201601f19168301916001600160401b038311848410176100795780849260209460405283398101031261007457516001600160a01b0381169081900361007457600080546001600160a01b03191691909117905560405161035690816100908239f35b600080fd5b634e487b7160e01b600052604160045260246000fdfe608060408181526004908136101561001657600080fd5b600092833560e01c908163c45a0155146102a3575063cf6c62ea1461003a57600080fd5b346101bb5760803660031901126101bb5781356001600160a01b03818116939184900361029f576024359080821680920361029b57604435906064359281885416918651809363e6a4390560e01b8252898883015283602483015281604460209687935afa908115610291578a91610257575b501696871561021e5786516323b872dd60e01b808252338289019081526001600160a01b038b166020820152604081018790528b9796959493919291859183919082908b90829060600103925af180156102145792888886948d948a976101f7575b508c51908152339281019283526001600160a01b039094166020830152604082019590955291938492839190829060600103925af180156101ed576101bf575b5050853b156101bb576044908386519788948593634e6a20ed60e11b85528885015260248401525af180156101b157610186578380f35b67ffffffffffffffff831161019e5750523880808380f35b634e487b7160e01b845260419052602483fd5b82513d86823e3d90fd5b8280fd5b816101de92903d106101e6575b6101d681836102cb565b810190610303565b50388061014f565b503d6101cc565b87513d87823e3d90fd5b61020d90873d89116101e6576101d681836102cb565b503861010f565b89513d89823e3d90fd5b865162461bcd60e51b8152808701849052601360248201527214185a5c88191bd95cc81b9bdd08195e1a5cdd606a1b6044820152606490fd5b90508381813d831161028a575b61026e81836102cb565b810103126102865751818116810361028657386100ad565b8980fd5b503d610264565b88513d8c823e3d90fd5b8580fd5b8480fd5b8490346102c757816003193601126102c75790546001600160a01b03168152602090f35b5080fd5b90601f8019910116810190811067ffffffffffffffff8211176102ed57604052565b634e487b7160e01b600052604160045260246000fd5b9081602091031261031b5751801515810361031b5790565b600080fdfea2646970667358221220ddb48c1a96df3adf9d1eb4b9fb0a7569f7ce4999a9cf98fd7f8d6134e646ea2664736f6c63430008140033",
  "linkReferences": {},
  "deployedLinkReferences": {}
}